{
  "abi": [
    {
      "inputs": [
        {
          "internalType": "contract IInputBox",
          "name": "_inputBox",
          "type": "address"
        }
      ],
      "stateMutability": "nonpayable",
      "type": "constructor"
    },
    {
      "inputs": [],
      "name": "EtherTransferFailed",
      "type": "error"
    },
    {
      "inputs": [
        {
          "internalType": "address",
          "name": "_dapp",
          "type": "address"
        },
        {
          "internalType": "bytes",
          "name": "_execLayerData",
          "type": "bytes"
        }
      ],
      "name": "depositEther",
      "outputs": [],
      "stateMutability": "payable",
      "type": "function"
    },
    {
      "inputs": [],
      "name": "getInputBox",
      "outputs": [
        {
          "internalType": "contract IInputBox",
          "name": "",
          "type": "address"
        }
      ],
      "stateMutability": "view",
      "type": "function"
    }
  ],
  "bytecode": {
    "object": "0x60a03461007157601f61034c38819003918201601f19168301916001600160401b038311848410176100765780849260209460405283398101031261007157516001600160a01b0381168103610071576080526040516102bf908161008d823960805181818161015401526102220152f35b600080fd5b634e487b7160e01b600052604160045260246000fdfe6080604081815260048036101561001557600080fd5b600092833560e01c908162aace9a1461020e575063938c054f1461003857600080fd5b8160031936011261020a5780356001600160a01b038181169391848103610206576024359467ffffffffffffffff8087116102025736602388011215610202578787870135938285116101fe57366024868b0101116101fe578180809234905af1903d156101f8573d9081116101e5578551906100bf601f8201601f191660200183610251565b81528860203d92013e5b156101d557939091866024969361010d6054875183819460209c8d9a3360601b8c860152346034860152018484013781018583820152036034810184520182610251565b8551968794631789cd6360e01b8652850152856024850152805190816044860152825b8281106101ba57505090606484838383839684010152601f801991011681010301927f0000000000000000000000000000000000000000000000000000000000000000165af19081156101b15750610186578280f35b813d83116101aa575b6101998183610251565b810103126101a75738808280f35b80fd5b503d61018f565b513d85823e3d90fd5b8181018701518982016064015289968996508b945001610130565b50505051630ce8f45160e31b8152fd5b634e487b7160e01b895260418752602489fd5b506100c9565b5080fd5b8780fd5b8580fd5b8280fd5b8490346101fe57816003193601126101fe577f00000000000000000000000000000000000000000000000000000000000000006001600160a01b03168152602090f35b90601f8019910116810190811067ffffffffffffffff82111761027357604052565b634e487b7160e01b600052604160045260246000fdfea2646970667358221220c5f645f17e4f58489b13e981c2d7785aac4932d883b96c00e508507a4f0f8abb64736f6c63430008140033",
    "linkReferences": {}
  },
  "methodIdentifiers": {
    "depositEther(address,bytes)": "938c054f",
    "getInputBox()": "00aace9a"
  },
  "id": 45
}