{
  "abi": [
    {
      "inputs": [
        {
          "internalType": "string",
          "name": "cid",
          "type": "string"
        },
        {
          "internalType": "address",
          "name": "_inputBox",
          "type": "address"
        },
        {
          "internalType": "address",
          "name": "_cartesiDapp",
          "type": "address"
        }
      ],
      "stateMutability": "nonpayable",
      "type": "constructor"
    },
    {
      "inputs": [],
      "name": "AccessControlBadConfirmation",
      "type": "error"
    },
    {
      "inputs": [
        {
          "internalType": "address",
          "name": "account",
          "type": "address"
        },
        {
          "internalType": "bytes32",
          "name": "neededRole",
          "type": "bytes32"
        }
      ],
      "name": "AccessControlUnauthorizedAccount",
      "type": "error"
    },
    {
      "inputs": [
        {
          "internalType": "address",
          "name": "sender",
          "type": "address"
        },
        {
          "internalType": "uint256",
          "name": "balance",
          "type": "uint256"
        },
        {
          "internalType": "uint256",
          "name": "needed",
          "type": "uint256"
        },
        {
          "internalType": "uint256",
          "name": "tokenId",
          "type": "uint256"
        }
      ],
      "name": "ERC1155InsufficientBalance",
      "type": "error"
    },
    {
      "inputs": [
        {
          "internalType": "address",
          "name": "approver",
          "type": "address"
        }
      ],
      "name": "ERC1155InvalidApprover",
      "type": "error"
    },
    {
      "inputs": [
        {
          "internalType": "uint256",
          "name": "idsLength",
          "type": "uint256"
        },
        {
          "internalType": "uint256",
          "name": "valuesLength",
          "type": "uint256"
        }
      ],
      "name": "ERC1155InvalidArrayLength",
      "type": "error"
    },
    {
      "inputs": [
        {
          "internalType": "address",
          "name": "operator",
          "type": "address"
        }
      ],
      "name": "ERC1155InvalidOperator",
      "type": "error"
    },
    {
      "inputs": [
        {
          "internalType": "address",
          "name": "receiver",
          "type": "address"
        }
      ],
      "name": "ERC1155InvalidReceiver",
      "type": "error"
    },
    {
      "inputs": [
        {
          "internalType": "address",
          "name": "sender",
          "type": "address"
        }
      ],
      "name": "ERC1155InvalidSender",
      "type": "error"
    },
    {
      "inputs": [
        {
          "internalType": "address",
          "name": "operator",
          "type": "address"
        },
        {
          "internalType": "address",
          "name": "owner",
          "type": "address"
        }
      ],
      "name": "ERC1155MissingApprovalForAll",
      "type": "error"
    },
    {
      "anonymous": false,
      "inputs": [
        {
          "indexed": true,
          "internalType": "address",
          "name": "account",
          "type": "address"
        }
      ],
      "name": "Affiliation",
      "type": "event"
    },
    {
      "anonymous": false,
      "inputs": [
        {
          "indexed": true,
          "internalType": "address",
          "name": "account",
          "type": "address"
        },
        {
          "indexed": true,
          "internalType": "address",
          "name": "operator",
          "type": "address"
        },
        {
          "indexed": false,
          "internalType": "bool",
          "name": "approved",
          "type": "bool"
        }
      ],
      "name": "ApprovalForAll",
      "type": "event"
    },
    {
      "anonymous": false,
      "inputs": [
        {
          "indexed": true,
          "internalType": "address",
          "name": "account",
          "type": "address"
        },
        {
          "indexed": true,
          "internalType": "uint256",
          "name": "id",
          "type": "uint256"
        }
      ],
      "name": "Mint",
      "type": "event"
    },
    {
      "anonymous": false,
      "inputs": [
        {
          "indexed": true,
          "internalType": "bytes32",
          "name": "role",
          "type": "bytes32"
        },
        {
          "indexed": true,
          "internalType": "bytes32",
          "name": "previousAdminRole",
          "type": "bytes32"
        },
        {
          "indexed": true,
          "internalType": "bytes32",
          "name": "newAdminRole",
          "type": "bytes32"
        }
      ],
      "name": "RoleAdminChanged",
      "type": "event"
    },
    {
      "anonymous": false,
      "inputs": [
        {
          "indexed": true,
          "internalType": "bytes32",
          "name": "role",
          "type": "bytes32"
        },
        {
          "indexed": true,
          "internalType": "address",
          "name": "account",
          "type": "address"
        },
        {
          "indexed": true,
          "internalType": "address",
          "name": "sender",
          "type": "address"
        }
      ],
      "name": "RoleGranted",
      "type": "event"
    },
    {
      "anonymous": false,
      "inputs": [
        {
          "indexed": true,
          "internalType": "bytes32",
          "name": "role",
          "type": "bytes32"
        },
        {
          "indexed": true,
          "internalType": "address",
          "name": "account",
          "type": "address"
        },
        {
          "indexed": true,
          "internalType": "address",
          "name": "sender",
          "type": "address"
        }
      ],
      "name": "RoleRevoked",
      "type": "event"
    },
    {
      "anonymous": false,
      "inputs": [
        {
          "indexed": true,
          "internalType": "address",
          "name": "operator",
          "type": "address"
        },
        {
          "indexed": true,
          "internalType": "address",
          "name": "from",
          "type": "address"
        },
        {
          "indexed": true,
          "internalType": "address",
          "name": "to",
          "type": "address"
        },
        {
          "indexed": false,
          "internalType": "uint256[]",
          "name": "ids",
          "type": "uint256[]"
        },
        {
          "indexed": false,
          "internalType": "uint256[]",
          "name": "values",
          "type": "uint256[]"
        }
      ],
      "name": "TransferBatch",
      "type": "event"
    },
    {
      "anonymous": false,
      "inputs": [
        {
          "indexed": true,
          "internalType": "address",
          "name": "operator",
          "type": "address"
        },
        {
          "indexed": true,
          "internalType": "address",
          "name": "from",
          "type": "address"
        },
        {
          "indexed": true,
          "internalType": "address",
          "name": "to",
          "type": "address"
        },
        {
          "indexed": false,
          "internalType": "uint256",
          "name": "id",
          "type": "uint256"
        },
        {
          "indexed": false,
          "internalType": "uint256",
          "name": "value",
          "type": "uint256"
        }
      ],
      "name": "TransferSingle",
      "type": "event"
    },
    {
      "anonymous": false,
      "inputs": [
        {
          "indexed": false,
          "internalType": "string",
          "name": "value",
          "type": "string"
        },
        {
          "indexed": true,
          "internalType": "uint256",
          "name": "id",
          "type": "uint256"
        }
      ],
      "name": "URI",
      "type": "event"
    },
    {
      "inputs": [],
      "name": "CARTESI_DAPP",
      "outputs": [
        {
          "internalType": "bytes32",
          "name": "",
          "type": "bytes32"
        }
      ],
      "stateMutability": "view",
      "type": "function"
    },
    {
      "inputs": [],
      "name": "DEFAULT_ADMIN_ROLE",
      "outputs": [
        {
          "internalType": "bytes32",
          "name": "",
          "type": "bytes32"
        }
      ],
      "stateMutability": "view",
      "type": "function"
    },
    {
      "inputs": [
        {
          "internalType": "address",
          "name": "account",
          "type": "address"
        },
        {
          "internalType": "uint256",
          "name": "id",
          "type": "uint256"
        }
      ],
      "name": "balanceOf",
      "outputs": [
        {
          "internalType": "uint256",
          "name": "",
          "type": "uint256"
        }
      ],
      "stateMutability": "view",
      "type": "function"
    },
    {
      "inputs": [
        {
          "internalType": "address[]",
          "name": "accounts",
          "type": "address[]"
        },
        {
          "internalType": "uint256[]",
          "name": "ids",
          "type": "uint256[]"
        }
      ],
      "name": "balanceOfBatch",
      "outputs": [
        {
          "internalType": "uint256[]",
          "name": "",
          "type": "uint256[]"
        }
      ],
      "stateMutability": "view",
      "type": "function"
    },
    {
      "inputs": [
        {
          "internalType": "address",
          "name": "account",
          "type": "address"
        },
        {
          "internalType": "uint256",
          "name": "id",
          "type": "uint256"
        },
        {
          "internalType": "uint256",
          "name": "value",
          "type": "uint256"
        }
      ],
      "name": "burn",
      "outputs": [],
      "stateMutability": "nonpayable",
      "type": "function"
    },
    {
      "inputs": [
        {
          "internalType": "address",
          "name": "account",
          "type": "address"
        },
        {
          "internalType": "uint256[]",
          "name": "ids",
          "type": "uint256[]"
        },
        {
          "internalType": "uint256[]",
          "name": "values",
          "type": "uint256[]"
        }
      ],
      "name": "burnBatch",
      "outputs": [],
      "stateMutability": "nonpayable",
      "type": "function"
    },
    {
      "inputs": [],
      "name": "claimAffiliation",
      "outputs": [
        {
          "internalType": "bool",
          "name": "",
          "type": "bool"
        }
      ],
      "stateMutability": "nonpayable",
      "type": "function"
    },
    {
      "inputs": [
        {
          "internalType": "uint256",
          "name": "id",
          "type": "uint256"
        }
      ],
      "name": "exists",
      "outputs": [
        {
          "internalType": "bool",
          "name": "",
          "type": "bool"
        }
      ],
      "stateMutability": "view",
      "type": "function"
    },
    {
      "inputs": [
        {
          "internalType": "bytes32",
          "name": "role",
          "type": "bytes32"
        }
      ],
      "name": "getRoleAdmin",
      "outputs": [
        {
          "internalType": "bytes32",
          "name": "",
          "type": "bytes32"
        }
      ],
      "stateMutability": "view",
      "type": "function"
    },
    {
      "inputs": [
        {
          "internalType": "bytes32",
          "name": "role",
          "type": "bytes32"
        },
        {
          "internalType": "address",
          "name": "account",
          "type": "address"
        }
      ],
      "name": "grantRole",
      "outputs": [],
      "stateMutability": "nonpayable",
      "type": "function"
    },
    {
      "inputs": [
        {
          "internalType": "bytes32",
          "name": "role",
          "type": "bytes32"
        },
        {
          "internalType": "address",
          "name": "account",
          "type": "address"
        }
      ],
      "name": "hasRole",
      "outputs": [
        {
          "internalType": "bool",
          "name": "",
          "type": "bool"
        }
      ],
      "stateMutability": "view",
      "type": "function"
    },
    {
      "inputs": [
        {
          "internalType": "address",
          "name": "account",
          "type": "address"
        },
        {
          "internalType": "address",
          "name": "operator",
          "type": "address"
        }
      ],
      "name": "isApprovedForAll",
      "outputs": [
        {
          "internalType": "bool",
          "name": "",
          "type": "bool"
        }
      ],
      "stateMutability": "view",
      "type": "function"
    },
    {
      "inputs": [
        {
          "internalType": "uint256",
          "name": "id",
          "type": "uint256"
        },
        {
          "internalType": "uint256",
          "name": "amount",
          "type": "uint256"
        },
        {
          "internalType": "address",
          "name": "account",
          "type": "address"
        }
      ],
      "name": "mint",
      "outputs": [
        {
          "internalType": "bool",
          "name": "",
          "type": "bool"
        }
      ],
      "stateMutability": "nonpayable",
      "type": "function"
    },
    {
      "inputs": [
        {
          "internalType": "bytes32",
          "name": "role",
          "type": "bytes32"
        },
        {
          "internalType": "address",
          "name": "callerConfirmation",
          "type": "address"
        }
      ],
      "name": "renounceRole",
      "outputs": [],
      "stateMutability": "nonpayable",
      "type": "function"
    },
    {
      "inputs": [
        {
          "internalType": "bytes32",
          "name": "role",
          "type": "bytes32"
        },
        {
          "internalType": "address",
          "name": "account",
          "type": "address"
        }
      ],
      "name": "revokeRole",
      "outputs": [],
      "stateMutability": "nonpayable",
      "type": "function"
    },
    {
      "inputs": [
        {
          "internalType": "address",
          "name": "from",
          "type": "address"
        },
        {
          "internalType": "address",
          "name": "to",
          "type": "address"
        },
        {
          "internalType": "uint256[]",
          "name": "ids",
          "type": "uint256[]"
        },
        {
          "internalType": "uint256[]",
          "name": "values",
          "type": "uint256[]"
        },
        {
          "internalType": "bytes",
          "name": "data",
          "type": "bytes"
        }
      ],
      "name": "safeBatchTransferFrom",
      "outputs": [],
      "stateMutability": "nonpayable",
      "type": "function"
    },
    {
      "inputs": [
        {
          "internalType": "address",
          "name": "from",
          "type": "address"
        },
        {
          "internalType": "address",
          "name": "to",
          "type": "address"
        },
        {
          "internalType": "uint256",
          "name": "id",
          "type": "uint256"
        },
        {
          "internalType": "uint256",
          "name": "value",
          "type": "uint256"
        },
        {
          "internalType": "bytes",
          "name": "data",
          "type": "bytes"
        }
      ],
      "name": "safeTransferFrom",
      "outputs": [],
      "stateMutability": "nonpayable",
      "type": "function"
    },
    {
      "inputs": [
        {
          "internalType": "address",
          "name": "operator",
          "type": "address"
        },
        {
          "internalType": "bool",
          "name": "approved",
          "type": "bool"
        }
      ],
      "name": "setApprovalForAll",
      "outputs": [],
      "stateMutability": "nonpayable",
      "type": "function"
    },
    {
      "inputs": [],
      "name": "supportersData",
      "outputs": [
        {
          "internalType": "string",
          "name": "cid",
          "type": "string"
        },
        {
          "internalType": "string",
          "name": "name",
          "type": "string"
        },
        {
          "internalType": "address",
          "name": "inputBox",
          "type": "address"
        },
        {
          "internalType": "address",
          "name": "cartesiDapp",
          "type": "address"
        }
      ],
      "stateMutability": "view",
      "type": "function"
    },
    {
      "inputs": [
        {
          "internalType": "bytes4",
          "name": "interfaceId",
          "type": "bytes4"
        }
      ],
      "name": "supportsInterface",
      "outputs": [
        {
          "internalType": "bool",
          "name": "",
          "type": "bool"
        }
      ],
      "stateMutability": "view",
      "type": "function"
    },
    {
      "inputs": [],
      "name": "totalSupply",
      "outputs": [
        {
          "internalType": "uint256",
          "name": "",
          "type": "uint256"
        }
      ],
      "stateMutability": "view",
      "type": "function"
    },
    {
      "inputs": [
        {
          "internalType": "uint256",
          "name": "id",
          "type": "uint256"
        }
      ],
      "name": "totalSupply",
      "outputs": [
        {
          "internalType": "uint256",
          "name": "",
          "type": "uint256"
        }
      ],
      "stateMutability": "view",
      "type": "function"
    },
    {
      "inputs": [
        {
          "internalType": "uint256",
          "name": "id",
          "type": "uint256"
        }
      ],
      "name": "uri",
      "outputs": [
        {
          "internalType": "string",
          "name": "",
          "type": "string"
        }
      ],
      "stateMutability": "view",
      "type": "function"
    }
  ],
  "bytecode": {
    "object": "0x608060405234620002f3576200257f803803806200001d81620002f8565b9283398101606082820312620002f35781516001600160401b039290838111620002f3578101601f838183011215620002f3578151938585116200028c57602094601f19936200007384830186168801620002f8565b92828452878383010111620002f357869060005b838110620002de57505060009183010152620000b36040620000ab8787016200031e565b95016200031e565b9460405181810190808210898311176200028c5760009160405252600254936001948581811c91168015620002d3575b838210146200026b57848111620002a2575b50600060025582519788116200028c576006548581811c9116801562000281575b838210146200026b578481116200021f575b5081938811600114620001b257505094809281926200019597600094620001a6575b50501b916000199060031b1c1916176006555b60018060a01b038060018060a01b0319921682600854161760085582169060095416176009556200018e3362000333565b50620003b4565b506040516121079081620004588239f35b0151925038806200014a565b87939192971696600660005282600020926000905b8982106200020757505083620001959810620001ed575b505050811b016006556200015d565b015160001960f88460031b161c19169055388080620001de565b808785968294968601518155019501930190620001c7565b60066000528260002085808b0160051c820192858c1062000261575b0160051c019086905b8281106200025457505062000128565b6000815501869062000244565b925081926200023b565b634e487b7160e01b600052602260045260246000fd5b90607f169062000116565b634e487b7160e01b600052604160045260246000fd5b6002600052858584600020920160051c8201915b828110620002c6575050620000f5565b60008155018690620002b6565b90607f1690620000e3565b81810183015185820184015288920162000087565b600080fd5b6040519190601f01601f191682016001600160401b038111838210176200028c57604052565b51906001600160a01b0382168203620002f357565b6001600160a01b031660008181527f3617319a054d772f909f7c479a2cebe5066e836a939412e32403c99029b92eff602052604081205490919060ff16620003b05781805260036020526040822081835260205260408220600160ff1982541617905533916000805160206200255f8339815191528180a4600190565b5090565b6001600160a01b031660008181527f71cb879fb9263b7c8d892d1b703d73b0b8dff397bfac17fd90416fd4de3522b160205260408120549091907f46609dc3da421dc12c45501c330683ebeabac9565aeed8893f72929e506c49fd9060ff16620004525780835260036020526040832082845260205260408320600160ff198254161790556000805160206200255f833981519152339380a4600190565b50509056fe6080604052600436101561001257600080fd5b60003560e01c8062fdd58e1461018657806301ffc9a7146101815780630e89341c1461017c57806318160ddd14610177578063248a9ca3146101725780632eb2c2d61461016d5780632f2ff15d1461016857806336568abe14610163578063423f4b321461015e5780634e1273f4146101595780634f558e79146101545780636b20c4541461014f57806391d148541461014a578063a217fddf14610145578063a22cb46514610140578063bd85b0391461013b578063cfe9315414610136578063d547741f14610131578063dc36d9501461012c578063e7d3fe6b14610127578063e985e9c514610122578063f242432a1461011d5763f5298aca1461011857600080fd5b6110f0565b611003565b610fb2565b610ee3565b610ea8565b610e69565b610d48565b610c24565b610b68565b610b4c565b610afa565b610a0e565b6109e0565b610926565b6107c8565b610781565b610742565b610619565b61049c565b61047e565b610313565b61022f565b6101d0565b600435906001600160a01b03821682036101a157565b600080fd5b602435906001600160a01b03821682036101a157565b35906001600160a01b03821682036101a157565b346101a15760403660031901126101a15760206102146101ee61018b565b6024356000526000835260406000209060018060a01b0316600052602052604060002090565b54604051908152f35b6001600160e01b03198116036101a157565b346101a15760203660031901126101a157602060043561024e8161021d565b63ffffffff60e01b16637965db0b60e01b8114908115610274575b506040519015158152f35b636cdb3d1360e11b8114915081156102a6575b8115610295575b5038610269565b6301ffc9a760e01b1490503861028e565b6303a24d0760e21b81149150610287565b60005b8381106102ca5750506000910152565b81810151838201526020016102ba565b906020916102f3815180928185528580860191016102b7565b601f01601f1916010190565b9060206103109281815201906102da565b90565b346101a15760203660031901126101a1576000600435807a184f03e93ff9f4daa797ed6e38ed64bf6a1f01000000000000000080821015610470575b506d04ee2d6d415b85acef810000000080831015610461575b50662386f26fc1000080831015610452575b506305f5e10080831015610443575b5061271080831015610434575b506064821015610424575b600a8092101561041a575b6001908160216103bd828701611c1d565b95860101905b6103e4575b6103e06103d486611b19565b604051918291826102ff565b0390f35b600019019083906f181899199a1a9b1b9c1cb0b131b232b360811b8282061a835304918215610415579190826103c3565b6103c8565b91600101916103ac565b91906064600291049101916103a1565b60049193920491019138610396565b60089193920491019138610389565b6010919392049101913861037a565b60209193920491019138610368565b60409350810491503861034f565b346101a15760003660031901126101a1576020600554604051908152f35b346101a15760203660031901126101a15760043560005260036020526020600160406000200154604051908152f35b634e487b7160e01b600052604160045260246000fd5b6020810190811067ffffffffffffffff8211176104fd57604052565b6104cb565b6040810190811067ffffffffffffffff8211176104fd57604052565b90601f8019910116810190811067ffffffffffffffff8211176104fd57604052565b67ffffffffffffffff81116104fd5760051b60200190565b81601f820112156101a15780359161056f83610540565b9261057d604051948561051e565b808452602092838086019260051b8201019283116101a1578301905b8282106105a7575050505090565b81358152908301908301610599565b67ffffffffffffffff81116104fd57601f01601f191660200190565b81601f820112156101a1578035906105e9826105b6565b926105f7604051948561051e565b828452602083830101116101a157816000926020809301838601378301015290565b346101a15760a03660031901126101a15761063261018b565b61063a6101a6565b906044359167ffffffffffffffff908184116101a15761065f60049436908601610558565b906064358381116101a1576106779036908701610558565b926084359081116101a15761068f90369087016105d2565b936001600160a01b0380821690338214158061071e575b6106f1578316156106d957156106c2576106c09550611682565b005b604051626a0d4560e21b8152600081880152602490fd5b604051632bfa23e760e11b8152600081890152602490fd5b6040805163711bec9160e11b815233818b019081526001600160a01b038616602082015290918291010390fd5b50600082815260016020908152604080832033845290915290205460ff16156106a6565b346101a15760403660031901126101a1576106c06004356107616101a6565b9080600052600360205261077c60016040600020015461122e565b61124f565b346101a15760403660031901126101a15761079a6101a6565b336001600160a01b038216036107b6576106c0906004356112e9565b60405163334bd91960e11b8152600490fd5b346101a1576000806003193601126108de576040516001600160e01b03198235166020808301919091526bffffffffffffffffffffffff193360601b166024830152601882526108699161081d60388261051e565b60085461084090610834906001600160a01b031681565b6001600160a01b031690565b6009546001600160a01b031685604051809681958294631789cd6360e01b845260048401611ae0565b03925af180156108d9576108ab575b50604051907fb9c2b8c1c49e8e977c246db6f12c8eb16dbb9e39a760410ce9767153852e6c5c339180a260018152602090f35b6108cb9060203d81116108d2575b6108c3818361051e565b810190611ad1565b5038610878565b503d6108b9565b611818565b80fd5b90815180825260208080930193019160005b828110610901575050505090565b8351855293810193928101926001016108f3565b9060206103109281815201906108e1565b346101a15760403660031901126101a15760043567ffffffffffffffff8082116101a157366023830112156101a157816004013561096381610540565b92610971604051948561051e565b81845260209160248386019160051b830101913683116101a157602401905b8282106109c957856024358681116101a1576103e0916109b76109bd923690600401610558565b906113cf565b60405191829182610915565b8380916109d5846101bc565b815201910190610990565b346101a15760203660031901126101a157600435600052600460205260206040600020541515604051908152f35b346101a15760603660031901126101a157610a2761018b565b67ffffffffffffffff6024358181116101a157610a48903690600401610558565b906044359081116101a157610a61903690600401610558565b906001600160a01b0383163381141580610ad6575b610aaf5715610a97576106c0926000604051610a91816104e1565b52611494565b604051626a0d4560e21b815260006004820152602490fd5b60405163711bec9160e11b81523360048201526001600160a01b0385166024820152604490fd5b50600081815260016020908152604080832033845290915290205460ff1615610a76565b346101a15760403660031901126101a157602060ff610b40610b1a6101a6565b6004356000526003845260406000209060018060a01b0316600052602052604060002090565b54166040519015158152f35b346101a15760003660031901126101a157602060405160008152f35b346101a15760403660031901126101a157610b8161018b565b60243590811515908183036101a1576001600160a01b038116928315610c0c57610bcd610bde9233600052600160205260406000209060018060a01b0316600052602052604060002090565b9060ff801983541691151516179055565b6040519081527f17307eab39ab6107e8899845ad3d59bd9653f200f220920489ca2b5937696c3160203392a3005b60405162ced3e160e81b815260006004820152602490fd5b346101a15760203660031901126101a15760043560005260046020526020604060002054604051908152f35b90600182811c92168015610c80575b6020831014610c6a57565b634e487b7160e01b600052602260045260246000fd5b91607f1691610c5f565b6040519060008260075491610c9e83610c50565b80835292600190818116908115610d265750600114610cc7575b50610cc59250038361051e565b565b6007600090815291507fa66cc928b5edb82af9bd49922954155ab7b0942694bea4ce44661d9a8736c6885b848310610d0b5750610cc5935050810160200138610cb8565b81935090816020925483858a01015201910190918592610cf2565b905060209250610cc594915060ff191682840152151560051b82010138610cb8565b346101a1576000806003193601126108de576040519080600654610d6b81610c50565b80855291600191808316908115610e3f5750600114610de4575b610dc785610d958187038261051e565b610d9d610c8a565b60018060a01b0390610dd582600854169260095416916040519586956080875260808701906102da565b9085820360208701526102da565b91604084015260608301520390f35b9250600683527ff652222313e28459528d920b65115c16c04f3efc82aaedc97be59f3f377c0d3f5b828410610e27575050508101602001610d9582610dc7610d85565b80546020858701810191909152909301928101610e0c565b869550610dc796935060209250610d9594915060ff191682840152151560051b8201019293610d85565b346101a15760403660031901126101a1576106c0600435610e886101a6565b90806000526003602052610ea360016040600020015461122e565b6112e9565b346101a15760003660031901126101a15760206040517f46609dc3da421dc12c45501c330683ebeabac9565aeed8893f72929e506c49fd8152f35b346101a15760603660031901126101a1576044356001600160a01b03811690600435908281036101a157610f156111b2565b60405182602082015260208152610f2b81610502565b8315610f9957610f6791610f61602435859160405192600184526020840152604083019160018352606084015260808301604052565b91611577565b604051917f0f6798a560793a54c3bcfe86a93cde1e73087d944c0ea20544137d4121396885600080a360018152602090f35b604051632bfa23e760e11b815260006004820152602490fd5b346101a15760403660031901126101a157602060ff610b40610fd261018b565b610fda6101a6565b6001600160a01b0391821660009081526001865260408082209290931681526020919091522090565b346101a15760a03660031901126101a15761101c61018b565b6110246101a6565b60843567ffffffffffffffff81116101a1576110449036906004016105d2565b906001600160a01b038381169033821415806110cc575b6110a557821615610f995715610a97576106c09261109d6064356044359160405192600184526020840152604083019160018352606084015260808301604052565b929091611682565b60405163711bec9160e11b81523360048201526001600160a01b0386166024820152604490fd5b50600082815260016020908152604080832033845290915290205460ff161561105b565b346101a15760603660031901126101a15761110961018b565b6001600160a01b038116338114158061118e575b6111675715610a97576106c0906111586044356024359160405192600184526020840152604083019160018352606084015260808301604052565b916000604051610a91816104e1565b60405163711bec9160e11b81523360048201526001600160a01b0383166024820152604490fd5b50600081815260016020908152604080832033845290915290205460ff161561111d565b3360009081527f71cb879fb9263b7c8d892d1b703d73b0b8dff397bfac17fd90416fd4de3522b1602052604090207f46609dc3da421dc12c45501c330683ebeabac9565aeed8893f72929e506c49fd9060ff905b5416156112105750565b6044906040519063e2517d3f60e01b82523360048301526024820152fd5b6000818152600360209081526040808320338452909152902060ff90611206565b600090808252600360205260ff61127b84604085209060018060a01b0316600052602052604060002090565b54166112e3578082526003602090815260408084206001600160a01b038616600090815292529020805460ff1916600117905533926001600160a01b0316917f2f8788117e7eff1d82e926ec794901d17c78024a50270940304540a733656f0d9080a4600190565b50905090565b600090808252600360205260ff61131584604085209060018060a01b0316600052602052604060002090565b5416156112e3578082526003602090815260408084206001600160a01b038616600090815292529020805460ff1916905533926001600160a01b0316917ff6391f5c32d9c69d2a47ea670b442974b53935d1edc7fd64eb21e047a839171b9080a4600190565b634e487b7160e01b600052601160045260246000fd5b60001981146113a05760010190565b61137b565b80518210156113b95760209160051b010190565b634e487b7160e01b600052603260045260246000fd5b919091805183518082036114725750508051906113eb82610540565b916113f9604051938461051e565b808352611408601f1991610540565b0190602091368385013760005b815181101561146a57600581901b8281018401519087018401516000908152602081815260408083206001600160a01b0390941683529290522054611465919061145f82876113a5565b52611391565b611415565b509193505050565b604051635b05999160e01b815260048101919091526024810191909152604490fd5b9291926114a2848383611c81565b6001600160a01b031615611511575b6000805b82518210156114ff576114f9906114cc83876113a5565b51906114ec6114db85876113a5565b516000526004602052604060002090565b8281540390550191611391565b906114b5565b915050610cc591925060055403600555565b6000805b825182101561155c576115506115569161152f84886113a5565b519061153e6114db86886113a5565b611549838254611c4f565b9055611c4f565b91611391565b90611515565b611572915061156d90600554611c4f565b600555565b6114b1565b93919091611586828487611e06565b600094855b84518710156115c0576115b46115ba916115a589876113a5565b519061153e6114db8b8a6113a5565b96611391565b9561158b565b6115d591959492965061156d90600554611c4f565b6001600160a01b0384161580611628575b156115f2575b50505050565b80516001036116195790602080611610959301519101519133611854565b388080806115ec565b6116239333611a65565b611610565b936000959193865b8551881015611669576116639061164789876113a5565b51906116566114db8b8a6113a5565b8281540390550197611391565b96611630565b61167d919593975095919560055403600555565b6115e6565b9193929061169282868386611f25565b6001600160a01b038381161561174a575b811615806116f0575b156116b9575b5050505050565b84516001036116df576020806116d5960151920151923361194e565b38808080806116b2565b6116eb94919233611a9a565b6116d5565b94939092600093845b86518610156117325761172c9061171087876113a5565b519061171f6114db898b6113a5565b8281540390550195611391565b946116f9565b6117459193969792955060055403600555565b6116ac565b95919260009491855b8751871015611782576115b461177c9161176d89896113a5565b519061153e6114db8b8d6113a5565b95611753565b61179a9193965061156d909892959498600554611c4f565b6116a3565b908160209103126101a157516103108161021d565b909260a0926103109594600180861b03168352600060208401526040830152606082015281608082015201906102da565b919261031095949160a094600180871b0380921685521660208401526040830152606082015281608082015201906102da565b6040513d6000823e3d90fd5b3d1561184f573d90611835826105b6565b91611843604051938461051e565b82523d6000602084013e565b606090565b9293919093843b611866575050505050565b602091611889604051948593849363f23a6e6160e01b98898652600486016117b4565b038160006001600160a01b0388165af16000918161191e575b506118e157826118b0611824565b80519190826118da57604051632bfa23e760e11b81526001600160a01b0383166004820152602490fd5b9050602001fd5b6001600160e01b031916036118fb575038808080806116b2565b604051632bfa23e760e11b81526001600160a01b03919091166004820152602490fd5b61194091925060203d8111611947575b611938818361051e565b81019061179f565b90386118a2565b503d61192e565b939290949194853b611963575b505050505050565b611986602093604051958694859463f23a6e6160e01b998a8752600487016117e5565b038160006001600160a01b0388165af1600091816119c8575b506119ad57826118b0611824565b6001600160e01b031916036118fb575038808080808061195b565b6119e191925060203d811161194757611938818361051e565b903861199f565b92611a176103109593611a259360018060a01b031686526000602087015260a0604087015260a08601906108e1565b9084820360608601526108e1565b9160808184039101526102da565b93906103109593611a1791611a259460018060a01b03809216885216602087015260a0604087015260a08601906108e1565b9293919093843b611a77575050505050565b602091611889604051948593849363bc197c8160e01b98898652600486016119e8565b939290949194853b611aae57505050505050565b611986602093604051958694859463bc197c8160e01b998a875260048701611a33565b908160209103126101a1575190565b6001600160a01b039091168152604060208201819052610310929101906102da565b90611b15602092828151948592016102b7565b0190565b90604051918260207468747470733a2f2f697066732e696f2f697066732f60581b81830152600060065491611b4d83610c50565b906001938481169081600014611bf75750600114611b9c575b5050602f60f81b8152610cc59360059392611b82920190611b02565b64173539b7b760d91b815203601a1981018552018361051e565b90915060066000527ff652222313e28459528d920b65115c16c04f3efc82aaedc97be59f3f377c0d3f6000905b838210611be0575050508201603501836005611b66565b805489830160350152889550908201908401611bc9565b60ff19166035808801919091528315159093028601909201925085915060059050611b66565b90611c27826105b6565b611c34604051918261051e565b8281528092611c45601f19916105b6565b0190602036910137565b919082018092116113a057565b9091611c73610310936040845260408401906108e1565b9160208184039101526108e1565b929190805182519081810361147257505060005b8151811015611d6657600581901b82810160209081015191850101516001600160a01b038716611cd0575b5050611ccb90611391565b611c95565b611cff87611ce8846000526000602052604060002090565b9060018060a01b0316600052602052604060002090565b54818110611d2f5787611ce8611ccb959493611d279303936000526000602052604060002090565b559038611cc0565b6040516303dee4c560e01b81526001600160a01b038916600482015260248101919091526044810182905260648101839052608490fd5b5090600092939160018151148414611dc7576020908101519181015160408051938452918301526001600160a01b039092169133917fc3d58168c5ae7397731d063d5bbf3d657854427343f4c083240f7aacaa2d0f6291819081015b0390a4565b6040516001600160a01b039093169233927f4a39dc06d4c0dbc64b70af90fd698a233a518aa5d07e595d983b8c0526c8f7fb928291611dc29183611c5c565b919091825182519081810361147257505060005b8351811015611e8657600581901b8481016020908101519185010151611e54929184906001600160a01b038216611e59575b505050611391565b611e1a565b611e7c91611ce8611e74926000526000602052604060002090565b918254611c4f565b9055388381611e4c565b50916001815114600014611ee6576020908101519181015160408051938452918301526001600160a01b039092169160009133917fc3d58168c5ae7397731d063d5bbf3d657854427343f4c083240f7aacaa2d0f62919081908101611dc2565b7f4a39dc06d4c0dbc64b70af90fd698a233a518aa5d07e595d983b8c0526c8f7fb611dc26000939460405191829160018060a01b031696339583611c5c565b939291805183519081810361147257505060005b815181101561202c57600581901b82810160209081015191860101516001600160a01b0392918590898516611fa5575b611f7b948216611f8057505050611391565b611f39565b611f9b91611ce8611e74926000526000602052604060002090565b9055388481611e4c565b9192939050611fc289611ce8846000526000602052604060002090565b54838110611ff55791869184611f7b96959403611fed8c611ce8856000526000602052604060002090565b559450611f69565b6040516303dee4c560e01b81526001600160a01b038b16600482015260248101919091526044810184905260648101839052608490fd5b50805193949391929160010361208e576020908101519181015160408051938452918301526001600160a01b03928316939092169133917fc3d58168c5ae7397731d063d5bbf3d657854427343f4c083240f7aacaa2d0f629181908101611dc2565b6040516001600160a01b03938416949093169233927f4a39dc06d4c0dbc64b70af90fd698a233a518aa5d07e595d983b8c0526c8f7fb928291611dc29183611c5c56fea2646970667358221220cfc249753d6fe747447c093d97d6b71994c5069123cd23fb0baad393f98773d864736f6c634300081400332f8788117e7eff1d82e926ec794901d17c78024a50270940304540a733656f0d",
    "linkReferences": {}
  },
  "methodIdentifiers": {
    "CARTESI_DAPP()": "dc36d950",
    "DEFAULT_ADMIN_ROLE()": "a217fddf",
    "balanceOf(address,uint256)": "00fdd58e",
    "balanceOfBatch(address[],uint256[])": "4e1273f4",
    "burn(address,uint256,uint256)": "f5298aca",
    "burnBatch(address,uint256[],uint256[])": "6b20c454",
    "claimAffiliation()": "423f4b32",
    "exists(uint256)": "4f558e79",
    "getRoleAdmin(bytes32)": "248a9ca3",
    "grantRole(bytes32,address)": "2f2ff15d",
    "hasRole(bytes32,address)": "91d14854",
    "isApprovedForAll(address,address)": "e985e9c5",
    "mint(uint256,uint256,address)": "e7d3fe6b",
    "renounceRole(bytes32,address)": "36568abe",
    "revokeRole(bytes32,address)": "d547741f",
    "safeBatchTransferFrom(address,address,uint256[],uint256[],bytes)": "2eb2c2d6",
    "safeTransferFrom(address,address,uint256,uint256,bytes)": "f242432a",
    "setApprovalForAll(address,bool)": "a22cb465",
    "supportersData()": "cfe93154",
    "supportsInterface(bytes4)": "01ffc9a7",
    "totalSupply()": "18160ddd",
    "totalSupply(uint256)": "bd85b039",
    "uri(uint256)": "0e89341c"
  },
  "id": 53
}