{
  "abi": [
    {
      "inputs": [
        {
          "internalType": "string",
          "name": "cid",
          "type": "string"
        },
        {
          "internalType": "address",
          "name": "cartesiDapp",
          "type": "address"
        },
        {
          "internalType": "address",
          "name": "etherPortal",
          "type": "address"
        },
        {
          "internalType": "address",
          "name": "supporters",
          "type": "address"
        },
        {
          "internalType": "address",
          "name": "parityRouter",
          "type": "address"
        }
      ],
      "stateMutability": "nonpayable",
      "type": "constructor"
    },
    {
      "inputs": [],
      "name": "AccessControlBadConfirmation",
      "type": "error"
    },
    {
      "inputs": [
        {
          "internalType": "address",
          "name": "account",
          "type": "address"
        },
        {
          "internalType": "bytes32",
          "name": "neededRole",
          "type": "bytes32"
        }
      ],
      "name": "AccessControlUnauthorizedAccount",
      "type": "error"
    },
    {
      "inputs": [
        {
          "internalType": "address",
          "name": "sender",
          "type": "address"
        },
        {
          "internalType": "uint256",
          "name": "balance",
          "type": "uint256"
        },
        {
          "internalType": "uint256",
          "name": "needed",
          "type": "uint256"
        },
        {
          "internalType": "uint256",
          "name": "tokenId",
          "type": "uint256"
        }
      ],
      "name": "ERC1155InsufficientBalance",
      "type": "error"
    },
    {
      "inputs": [
        {
          "internalType": "address",
          "name": "approver",
          "type": "address"
        }
      ],
      "name": "ERC1155InvalidApprover",
      "type": "error"
    },
    {
      "inputs": [
        {
          "internalType": "uint256",
          "name": "idsLength",
          "type": "uint256"
        },
        {
          "internalType": "uint256",
          "name": "valuesLength",
          "type": "uint256"
        }
      ],
      "name": "ERC1155InvalidArrayLength",
      "type": "error"
    },
    {
      "inputs": [
        {
          "internalType": "address",
          "name": "operator",
          "type": "address"
        }
      ],
      "name": "ERC1155InvalidOperator",
      "type": "error"
    },
    {
      "inputs": [
        {
          "internalType": "address",
          "name": "receiver",
          "type": "address"
        }
      ],
      "name": "ERC1155InvalidReceiver",
      "type": "error"
    },
    {
      "inputs": [
        {
          "internalType": "address",
          "name": "sender",
          "type": "address"
        }
      ],
      "name": "ERC1155InvalidSender",
      "type": "error"
    },
    {
      "inputs": [
        {
          "internalType": "address",
          "name": "operator",
          "type": "address"
        },
        {
          "internalType": "address",
          "name": "owner",
          "type": "address"
        }
      ],
      "name": "ERC1155MissingApprovalForAll",
      "type": "error"
    },
    {
      "inputs": [],
      "name": "EnforcedPause",
      "type": "error"
    },
    {
      "inputs": [],
      "name": "ExpectedPause",
      "type": "error"
    },
    {
      "inputs": [
        {
          "internalType": "address",
          "name": "account",
          "type": "address"
        },
        {
          "internalType": "uint256",
          "name": "value",
          "type": "uint256"
        }
      ],
      "name": "MintFailed",
      "type": "error"
    },
    {
      "inputs": [
        {
          "internalType": "uint256",
          "name": "timestamp",
          "type": "uint256"
        }
      ],
      "name": "OutsideSaleWindow",
      "type": "error"
    },
    {
      "anonymous": false,
      "inputs": [
        {
          "indexed": true,
          "internalType": "address",
          "name": "account",
          "type": "address"
        },
        {
          "indexed": true,
          "internalType": "address",
          "name": "operator",
          "type": "address"
        },
        {
          "indexed": false,
          "internalType": "bool",
          "name": "approved",
          "type": "bool"
        }
      ],
      "name": "ApprovalForAll",
      "type": "event"
    },
    {
      "anonymous": false,
      "inputs": [
        {
          "indexed": false,
          "internalType": "uint256",
          "name": "preSaleStartTime",
          "type": "uint256"
        },
        {
          "indexed": false,
          "internalType": "uint256",
          "name": "preSaleEndTime",
          "type": "uint256"
        },
        {
          "indexed": false,
          "internalType": "uint256",
          "name": "preSalePrice",
          "type": "uint256"
        },
        {
          "indexed": false,
          "internalType": "uint256",
          "name": "saleStartTime",
          "type": "uint256"
        },
        {
          "indexed": false,
          "internalType": "uint256",
          "name": "saleEndTime",
          "type": "uint256"
        },
        {
          "indexed": false,
          "internalType": "uint256",
          "name": "salePrice",
          "type": "uint256"
        }
      ],
      "name": "LaunchStrategy",
      "type": "event"
    },
    {
      "anonymous": false,
      "inputs": [
        {
          "indexed": true,
          "internalType": "address",
          "name": "account",
          "type": "address"
        },
        {
          "indexed": true,
          "internalType": "uint256",
          "name": "id",
          "type": "uint256"
        }
      ],
      "name": "Mint",
      "type": "event"
    },
    {
      "anonymous": false,
      "inputs": [
        {
          "indexed": false,
          "internalType": "address",
          "name": "account",
          "type": "address"
        }
      ],
      "name": "Paused",
      "type": "event"
    },
    {
      "anonymous": false,
      "inputs": [
        {
          "indexed": true,
          "internalType": "bytes32",
          "name": "role",
          "type": "bytes32"
        },
        {
          "indexed": true,
          "internalType": "bytes32",
          "name": "previousAdminRole",
          "type": "bytes32"
        },
        {
          "indexed": true,
          "internalType": "bytes32",
          "name": "newAdminRole",
          "type": "bytes32"
        }
      ],
      "name": "RoleAdminChanged",
      "type": "event"
    },
    {
      "anonymous": false,
      "inputs": [
        {
          "indexed": true,
          "internalType": "bytes32",
          "name": "role",
          "type": "bytes32"
        },
        {
          "indexed": true,
          "internalType": "address",
          "name": "account",
          "type": "address"
        },
        {
          "indexed": true,
          "internalType": "address",
          "name": "sender",
          "type": "address"
        }
      ],
      "name": "RoleGranted",
      "type": "event"
    },
    {
      "anonymous": false,
      "inputs": [
        {
          "indexed": true,
          "internalType": "bytes32",
          "name": "role",
          "type": "bytes32"
        },
        {
          "indexed": true,
          "internalType": "address",
          "name": "account",
          "type": "address"
        },
        {
          "indexed": true,
          "internalType": "address",
          "name": "sender",
          "type": "address"
        }
      ],
      "name": "RoleRevoked",
      "type": "event"
    },
    {
      "anonymous": false,
      "inputs": [
        {
          "indexed": true,
          "internalType": "address",
          "name": "operator",
          "type": "address"
        },
        {
          "indexed": true,
          "internalType": "address",
          "name": "from",
          "type": "address"
        },
        {
          "indexed": true,
          "internalType": "address",
          "name": "to",
          "type": "address"
        },
        {
          "indexed": false,
          "internalType": "uint256[]",
          "name": "ids",
          "type": "uint256[]"
        },
        {
          "indexed": false,
          "internalType": "uint256[]",
          "name": "values",
          "type": "uint256[]"
        }
      ],
      "name": "TransferBatch",
      "type": "event"
    },
    {
      "anonymous": false,
      "inputs": [
        {
          "indexed": true,
          "internalType": "address",
          "name": "operator",
          "type": "address"
        },
        {
          "indexed": true,
          "internalType": "address",
          "name": "from",
          "type": "address"
        },
        {
          "indexed": true,
          "internalType": "address",
          "name": "to",
          "type": "address"
        },
        {
          "indexed": false,
          "internalType": "uint256",
          "name": "id",
          "type": "uint256"
        },
        {
          "indexed": false,
          "internalType": "uint256",
          "name": "value",
          "type": "uint256"
        }
      ],
      "name": "TransferSingle",
      "type": "event"
    },
    {
      "anonymous": false,
      "inputs": [
        {
          "indexed": false,
          "internalType": "string",
          "name": "value",
          "type": "string"
        },
        {
          "indexed": true,
          "internalType": "uint256",
          "name": "id",
          "type": "uint256"
        }
      ],
      "name": "URI",
      "type": "event"
    },
    {
      "anonymous": false,
      "inputs": [
        {
          "indexed": false,
          "internalType": "address",
          "name": "account",
          "type": "address"
        }
      ],
      "name": "Unpaused",
      "type": "event"
    },
    {
      "inputs": [],
      "name": "CARTESI_DAPP",
      "outputs": [
        {
          "internalType": "bytes32",
          "name": "",
          "type": "bytes32"
        }
      ],
      "stateMutability": "view",
      "type": "function"
    },
    {
      "inputs": [],
      "name": "DEFAULT_ADMIN_ROLE",
      "outputs": [
        {
          "internalType": "bytes32",
          "name": "",
          "type": "bytes32"
        }
      ],
      "stateMutability": "view",
      "type": "function"
    },
    {
      "inputs": [
        {
          "internalType": "address",
          "name": "account",
          "type": "address"
        },
        {
          "internalType": "uint256",
          "name": "id",
          "type": "uint256"
        }
      ],
      "name": "balanceOf",
      "outputs": [
        {
          "internalType": "uint256",
          "name": "",
          "type": "uint256"
        }
      ],
      "stateMutability": "view",
      "type": "function"
    },
    {
      "inputs": [
        {
          "internalType": "address[]",
          "name": "accounts",
          "type": "address[]"
        },
        {
          "internalType": "uint256[]",
          "name": "ids",
          "type": "uint256[]"
        }
      ],
      "name": "balanceOfBatch",
      "outputs": [
        {
          "internalType": "uint256[]",
          "name": "",
          "type": "uint256[]"
        }
      ],
      "stateMutability": "view",
      "type": "function"
    },
    {
      "inputs": [
        {
          "internalType": "address",
          "name": "account",
          "type": "address"
        },
        {
          "internalType": "uint256",
          "name": "id",
          "type": "uint256"
        },
        {
          "internalType": "uint256",
          "name": "value",
          "type": "uint256"
        }
      ],
      "name": "burn",
      "outputs": [],
      "stateMutability": "nonpayable",
      "type": "function"
    },
    {
      "inputs": [
        {
          "internalType": "address",
          "name": "account",
          "type": "address"
        },
        {
          "internalType": "uint256[]",
          "name": "ids",
          "type": "uint256[]"
        },
        {
          "internalType": "uint256[]",
          "name": "values",
          "type": "uint256[]"
        }
      ],
      "name": "burnBatch",
      "outputs": [],
      "stateMutability": "nonpayable",
      "type": "function"
    },
    {
      "inputs": [
        {
          "internalType": "uint256",
          "name": "id",
          "type": "uint256"
        }
      ],
      "name": "exists",
      "outputs": [
        {
          "internalType": "bool",
          "name": "",
          "type": "bool"
        }
      ],
      "stateMutability": "view",
      "type": "function"
    },
    {
      "inputs": [
        {
          "internalType": "bytes32",
          "name": "role",
          "type": "bytes32"
        }
      ],
      "name": "getRoleAdmin",
      "outputs": [
        {
          "internalType": "bytes32",
          "name": "",
          "type": "bytes32"
        }
      ],
      "stateMutability": "view",
      "type": "function"
    },
    {
      "inputs": [
        {
          "internalType": "bytes32",
          "name": "role",
          "type": "bytes32"
        },
        {
          "internalType": "address",
          "name": "account",
          "type": "address"
        }
      ],
      "name": "grantRole",
      "outputs": [],
      "stateMutability": "nonpayable",
      "type": "function"
    },
    {
      "inputs": [
        {
          "internalType": "bytes32",
          "name": "role",
          "type": "bytes32"
        },
        {
          "internalType": "address",
          "name": "account",
          "type": "address"
        }
      ],
      "name": "hasRole",
      "outputs": [
        {
          "internalType": "bool",
          "name": "",
          "type": "bool"
        }
      ],
      "stateMutability": "view",
      "type": "function"
    },
    {
      "inputs": [
        {
          "internalType": "address",
          "name": "account",
          "type": "address"
        },
        {
          "internalType": "address",
          "name": "operator",
          "type": "address"
        }
      ],
      "name": "isApprovedForAll",
      "outputs": [
        {
          "internalType": "bool",
          "name": "",
          "type": "bool"
        }
      ],
      "stateMutability": "view",
      "type": "function"
    },
    {
      "inputs": [
        {
          "internalType": "uint256",
          "name": "_preSaleStartTime",
          "type": "uint256"
        },
        {
          "internalType": "uint256",
          "name": "_preSaleEndTime",
          "type": "uint256"
        },
        {
          "internalType": "uint256",
          "name": "_preSalePrice",
          "type": "uint256"
        },
        {
          "internalType": "uint256",
          "name": "_saleStartTime",
          "type": "uint256"
        },
        {
          "internalType": "uint256",
          "name": "_saleEndTime",
          "type": "uint256"
        },
        {
          "internalType": "uint256",
          "name": "_salePrice",
          "type": "uint256"
        }
      ],
      "name": "launchStrategy",
      "outputs": [
        {
          "internalType": "bool",
          "name": "",
          "type": "bool"
        }
      ],
      "stateMutability": "nonpayable",
      "type": "function"
    },
    {
      "inputs": [],
      "name": "launchStrategyData",
      "outputs": [
        {
          "internalType": "uint256",
          "name": "preSaleStartTime",
          "type": "uint256"
        },
        {
          "internalType": "uint256",
          "name": "preSaleEndTime",
          "type": "uint256"
        },
        {
          "internalType": "uint256",
          "name": "preSalePrice",
          "type": "uint256"
        },
        {
          "internalType": "uint256",
          "name": "saleStartTime",
          "type": "uint256"
        },
        {
          "internalType": "uint256",
          "name": "saleEndTime",
          "type": "uint256"
        },
        {
          "internalType": "uint256",
          "name": "salePrice",
          "type": "uint256"
        }
      ],
      "stateMutability": "view",
      "type": "function"
    },
    {
      "inputs": [
        {
          "internalType": "uint256",
          "name": "amount",
          "type": "uint256"
        }
      ],
      "name": "mint",
      "outputs": [
        {
          "internalType": "bool",
          "name": "",
          "type": "bool"
        }
      ],
      "stateMutability": "payable",
      "type": "function"
    },
    {
      "inputs": [
        {
          "internalType": "uint256",
          "name": "amount",
          "type": "uint256"
        },
        {
          "internalType": "address",
          "name": "affiliate",
          "type": "address"
        }
      ],
      "name": "mintWithAffiliate",
      "outputs": [
        {
          "internalType": "bool",
          "name": "",
          "type": "bool"
        }
      ],
      "stateMutability": "payable",
      "type": "function"
    },
    {
      "inputs": [],
      "name": "paused",
      "outputs": [
        {
          "internalType": "bool",
          "name": "",
          "type": "bool"
        }
      ],
      "stateMutability": "view",
      "type": "function"
    },
    {
      "inputs": [
        {
          "internalType": "bytes32",
          "name": "role",
          "type": "bytes32"
        },
        {
          "internalType": "address",
          "name": "callerConfirmation",
          "type": "address"
        }
      ],
      "name": "renounceRole",
      "outputs": [],
      "stateMutability": "nonpayable",
      "type": "function"
    },
    {
      "inputs": [
        {
          "internalType": "bytes32",
          "name": "role",
          "type": "bytes32"
        },
        {
          "internalType": "address",
          "name": "account",
          "type": "address"
        }
      ],
      "name": "revokeRole",
      "outputs": [],
      "stateMutability": "nonpayable",
      "type": "function"
    },
    {
      "inputs": [
        {
          "internalType": "address",
          "name": "from",
          "type": "address"
        },
        {
          "internalType": "address",
          "name": "to",
          "type": "address"
        },
        {
          "internalType": "uint256[]",
          "name": "ids",
          "type": "uint256[]"
        },
        {
          "internalType": "uint256[]",
          "name": "values",
          "type": "uint256[]"
        },
        {
          "internalType": "bytes",
          "name": "data",
          "type": "bytes"
        }
      ],
      "name": "safeBatchTransferFrom",
      "outputs": [],
      "stateMutability": "nonpayable",
      "type": "function"
    },
    {
      "inputs": [
        {
          "internalType": "address",
          "name": "from",
          "type": "address"
        },
        {
          "internalType": "address",
          "name": "to",
          "type": "address"
        },
        {
          "internalType": "uint256",
          "name": "id",
          "type": "uint256"
        },
        {
          "internalType": "uint256",
          "name": "value",
          "type": "uint256"
        },
        {
          "internalType": "bytes",
          "name": "data",
          "type": "bytes"
        }
      ],
      "name": "safeTransferFrom",
      "outputs": [],
      "stateMutability": "nonpayable",
      "type": "function"
    },
    {
      "inputs": [
        {
          "internalType": "address",
          "name": "operator",
          "type": "address"
        },
        {
          "internalType": "bool",
          "name": "approved",
          "type": "bool"
        }
      ],
      "name": "setApprovalForAll",
      "outputs": [],
      "stateMutability": "nonpayable",
      "type": "function"
    },
    {
      "inputs": [
        {
          "internalType": "bytes4",
          "name": "interfaceId",
          "type": "bytes4"
        }
      ],
      "name": "supportsInterface",
      "outputs": [
        {
          "internalType": "bool",
          "name": "",
          "type": "bool"
        }
      ],
      "stateMutability": "view",
      "type": "function"
    },
    {
      "inputs": [],
      "name": "totalSupply",
      "outputs": [
        {
          "internalType": "uint256",
          "name": "",
          "type": "uint256"
        }
      ],
      "stateMutability": "view",
      "type": "function"
    },
    {
      "inputs": [
        {
          "internalType": "uint256",
          "name": "id",
          "type": "uint256"
        }
      ],
      "name": "totalSupply",
      "outputs": [
        {
          "internalType": "uint256",
          "name": "",
          "type": "uint256"
        }
      ],
      "stateMutability": "view",
      "type": "function"
    },
    {
      "inputs": [],
      "name": "tribeData",
      "outputs": [
        {
          "internalType": "string",
          "name": "cid",
          "type": "string"
        },
        {
          "internalType": "string",
          "name": "name",
          "type": "string"
        },
        {
          "internalType": "address",
          "name": "creator",
          "type": "address"
        },
        {
          "internalType": "address",
          "name": "supporters",
          "type": "address"
        },
        {
          "internalType": "address",
          "name": "etherPortal",
          "type": "address"
        },
        {
          "internalType": "address",
          "name": "cartesiDapp",
          "type": "address"
        },
        {
          "internalType": "address",
          "name": "parityRouter",
          "type": "address"
        }
      ],
      "stateMutability": "view",
      "type": "function"
    },
    {
      "inputs": [
        {
          "internalType": "uint256",
          "name": "id",
          "type": "uint256"
        }
      ],
      "name": "uri",
      "outputs": [
        {
          "internalType": "string",
          "name": "",
          "type": "string"
        }
      ],
      "stateMutability": "view",
      "type": "function"
    }
  ],
  "bytecode": {
    "object": "0x60406080815234620003a85762002aa190813803806200001f81620003ad565b93843982019160a081840312620003a85780516001600160401b0390818111620003a857820190601f94808684011215620003a8578251938285116200037d57602094601f19946200007789830187168801620003ad565b93828552878383010111620003a857869060005b8381106200039357505060009184010152620000a9858201620003d3565b90620000b7878201620003d3565b620000d36080620000cb60608501620003d3565b9301620003d3565b885188810190808210888311176200037d576000918b5252600254956001968781811c9116801562000372575b8a8210146200035c578b81116200032b575b50600060025560ff199a6004988c8a54168a55875192831162000316576007548981811c911680156200030b575b8c821014620002f65780838d9211620002a8575b50508a9183116001146200023b57508190620001d7976000926200022f575b5050600019600383901b1c191690871b176007555b60018060a01b0380928160018060a01b0319951685600a541617600a5581861685600c541617600c551683600b541617600b551690600d541617600d55620001d033620003e8565b5062000469565b5081549460ff86166200021f577f62e78cea01bee320cd4e420270b5ea74000d11b0c9f74754ebdbfc544b05a2589495161790558251338152a15161257490816200050d8239f35b845163d93c066560e01b81528390fd5b01519050388062000173565b9082918993169060076000528b6000209160005b8d828210620002915750509883620001d79a1062000277575b505050811b0160075562000188565b015160001960f88460031b161c1916905538808062000268565b838c015185558c969094019392830192016200024f565b600760005283826000209181870160051c8301938710620002ec575b0160051c01908a905b828110620002df57508c915062000154565b60008155018a90620002cd565b92508192620002c4565b60228b634e487b7160e01b6000525260246000fd5b90607f169062000140565b60418a634e487b7160e01b6000525260246000fd5b6002600052878c8b600020920160051c8201915b8281106200034f57505062000112565b600081550188906200033f565b634e487b7160e01b600052602260045260246000fd5b90607f169062000100565b634e487b7160e01b600052604160045260246000fd5b8181018301518682018401528892016200008b565b600080fd5b6040519190601f01601f191682016001600160401b038111838210176200037d57604052565b51906001600160a01b0382168203620003a857565b6001600160a01b031660008181527f3617319a054d772f909f7c479a2cebe5066e836a939412e32403c99029b92eff602052604081205490919060ff16620004655781805260036020526040822081835260205260408220600160ff19825416179055339160008051602062002a818339815191528180a4600190565b5090565b6001600160a01b031660008181527f71cb879fb9263b7c8d892d1b703d73b0b8dff397bfac17fd90416fd4de3522b160205260408120549091907f46609dc3da421dc12c45501c330683ebeabac9565aeed8893f72929e506c49fd9060ff16620005075780835260036020526040832082845260205260408320600160ff1982541617905560008051602062002a81833981519152339380a4600190565b50509056fe6080604052600436101561001257600080fd5b60003560e01c8062fdd58e146101b657806301ffc9a7146101b15780630c876888146101ac5780630e89341c146101a757806318160ddd146101a2578063248a9ca31461019d5780632eb2c2d6146101985780632f2ff15d1461019357806336568abe1461018e57806346f7a53d146101895780634e1273f4146101845780634f558e791461017f5780635c975abb1461017a5780636b20c4541461017557806391d148541461017057806397ce59811461016b578063a0712d6814610166578063a217fddf14610161578063a22cb4651461015c578063a98a3c1914610157578063bd85b03914610152578063d547741f1461014d578063dc36d95014610148578063e985e9c514610143578063f242432a1461013e5763f5298aca1461013957600080fd5b611102565b610ffc565b610fab565b610f70565b610f31565b610f05565b610ee4565b610e28565b610e0c565b610de9565b610d9c565b610d4a565b610c5e565b610c3b565b610c0d565b610b53565b610a83565b6108ab565b61086c565b610743565b6105ce565b6105b0565b61043e565b6102e7565b61025f565b610200565b600435906001600160a01b03821682036101d157565b600080fd5b602435906001600160a01b03821682036101d157565b35906001600160a01b03821682036101d157565b346101d15760403660031901126101d157602061024461021e6101bb565b6024356000526000835260406000209060018060a01b0316600052602052604060002090565b54604051908152f35b6001600160e01b03198116036101d157565b346101d15760203660031901126101d157602060043561027e8161024d565b63ffffffff60e01b16637965db0b60e01b81149081156102a4575b506040519015158152f35b636cdb3d1360e11b8114915081156102d6575b81156102c5575b5038610299565b6301ffc9a760e01b149050386102be565b6303a24d0760e21b811491506102b7565b346101d15760c03660031901126101d15760443560243560043560643560a4356084356103126111c4565b83600e5584600f55856010558260115580601255816013556004549260ff8416156103d0577f2d9460db4579a983cd9abc1b28e040e0038438ac9a0a9a0d92bcc595b6318928966103bd9460ff19166004557f5db9ee0a495bf2e6ff9c91a7834c1ba4fdd244a5e8aa4e537bd38aeae4b073aa6020604051338152a1604051968796879260a094919796959260c0850198855260208501526040840152606083015260808201520152565b0390a160405160018152602090f35b0390f35b604051638dfc202b60e01b8152600490fd5b60005b8381106103f55750506000910152565b81810151838201526020016103e5565b9060209161041e815180928185528580860191016103e2565b601f01601f1916010190565b90602061043b928181520190610405565b90565b346101d15760203660031901126101d1576000600435807a184f03e93ff9f4daa797ed6e38ed64bf6a1f01000000000000000080821015610597575b506d04ee2d6d415b85acef810000000080831015610588575b50662386f26fc1000080831015610579575b506305f5e1008083101561056a575b506127108083101561055b575b50606482101561054b575b600a80921015610541575b6001908160216104e8828701611fd9565b95860101905b61050b575b6103cc6104ff86611ed5565b6040519182918261042a565b600019019083906f181899199a1a9b1b9c1cb0b131b232b360811b8282061a83530491821561053c579190826104ee565b6104f3565b91600101916104d7565b91906064600291049101916104cc565b600491939204910191386104c1565b600891939204910191386104b4565b601091939204910191386104a5565b60209193920491019138610493565b60409350810491503861047a565b60009103126101d157565b346101d15760003660031901126101d1576020600654604051908152f35b346101d15760203660031901126101d15760043560005260036020526020600160406000200154604051908152f35b634e487b7160e01b600052604160045260246000fd5b67ffffffffffffffff811161062757604052565b6105fd565b6020810190811067ffffffffffffffff82111761062757604052565b90601f8019910116810190811067ffffffffffffffff82111761062757604052565b67ffffffffffffffff81116106275760051b60200190565b81601f820112156101d1578035916106998361066a565b926106a76040519485610648565b808452602092838086019260051b8201019283116101d1578301905b8282106106d1575050505090565b813581529083019083016106c3565b67ffffffffffffffff811161062757601f01601f191660200190565b81601f820112156101d157803590610713826106e0565b926107216040519485610648565b828452602083830101116101d157816000926020809301838601378301015290565b346101d15760a03660031901126101d15761075c6101bb565b6107646101d6565b906044359167ffffffffffffffff908184116101d15761078960049436908601610682565b906064358381116101d1576107a19036908701610682565b926084359081116101d1576107b990369087016106fc565b936001600160a01b03808216903382141580610848575b61081b5783161561080357156107ec576107ea9550611589565b005b604051626a0d4560e21b8152600081880152602490fd5b604051632bfa23e760e11b8152600081890152602490fd5b6040805163711bec9160e11b815233818b019081526001600160a01b038616602082015290918291010390fd5b50600082815260016020908152604080832033845290915290205460ff16156107d0565b346101d15760403660031901126101d1576107ea60043561088b6101d6565b908060005260036020526108a6600160406000200154611240565b611261565b346101d15760403660031901126101d1576108c46101d6565b336001600160a01b038216036108e0576107ea906004356112fb565b60405163334bd91960e11b8152600490fd5b90600182811c92168015610922575b602083101461090c57565b634e487b7160e01b600052602260045260246000fd5b91607f1691610901565b6040519060008260075491610940836108f2565b808352926001908181169081156109c85750600114610969575b5061096792500383610648565b565b6007600090815291507fa66cc928b5edb82af9bd49922954155ab7b0942694bea4ce44661d9a8736c6885b8483106109ad575061096793505081016020013861095a565b81935090816020925483858a01015201910190918592610994565b90506020925061096794915060ff191682840152151560051b8201013861095a565b60405190600082600854916109fe836108f2565b808352926001908181169081156109c85750600114610a24575061096792500383610648565b6008600090815291507ff3f7a9fe364faab93b216da50a3214154f22a0a2b415b23a84c8169e8b636ee35b848310610a68575061096793505081016020013861095a565b81935090816020925483858a01015201910190918592610a4f565b346101d15760003660031901126101d157610ae2610a9f61092c565b610aa76109ea565b60018060a01b039081600954169180600a541681600b541690610af083600c541693600d54169460405198899860e08a5260e08a0190610405565b9088820360208a0152610405565b9460408701526060860152608085015260a084015260c08301520390f35b90815180825260208080930193019160005b828110610b2e575050505090565b835185529381019392810192600101610b20565b90602061043b928181520190610b0e565b346101d15760403660031901126101d15760043567ffffffffffffffff8082116101d157366023830112156101d1578160040135610b908161066a565b92610b9e6040519485610648565b81845260209160248386019160051b830101913683116101d157602401905b828210610bf657856024358681116101d1576103cc91610be4610bea923690600401610682565b906113e1565b60405191829182610b42565b838091610c02846101ec565b815201910190610bbd565b346101d15760203660031901126101d157600435600052600560205260206040600020541515604051908152f35b346101d15760003660031901126101d157602060ff600454166040519015158152f35b346101d15760603660031901126101d157610c776101bb565b67ffffffffffffffff6024358181116101d157610c98903690600401610682565b906044359081116101d157610cb1903690600401610682565b906001600160a01b0383163381141580610d26575b610cff5715610ce7576107ea926000604051610ce18161062c565b526114a6565b604051626a0d4560e21b815260006004820152602490fd5b60405163711bec9160e11b81523360048201526001600160a01b0385166024820152604490fd5b50600081815260016020908152604080832033845290915290205460ff1615610cc6565b346101d15760403660031901126101d157602060ff610d90610d6a6101d6565b6004356000526003845260406000209060018060a01b0316600052602052604060002090565b54166040519015158152f35b346101d15760003660031901126101d157600e54600f54601054601154601254601354604080519687526020870195909552938501929092526060840152608083015260a082015260c090f35b60203660031901126101d1576020610e02600435611a13565b6040519015158152f35b346101d15760003660031901126101d157602060405160008152f35b346101d15760403660031901126101d157610e416101bb565b60243590811515908183036101d1576001600160a01b038116928315610ecc57610e8d610e9e9233600052600160205260406000209060018060a01b0316600052602052604060002090565b9060ff801983541691151516179055565b6040519081527f17307eab39ab6107e8899845ad3d59bd9653f200f220920489ca2b5937696c3160203392a3005b60405162ced3e160e81b815260006004820152602490fd5b60403660031901126101d1576020610e02610efd6101d6565b600435611d5e565b346101d15760203660031901126101d15760043560005260056020526020604060002054604051908152f35b346101d15760403660031901126101d1576107ea600435610f506101d6565b90806000526003602052610f6b600160406000200154611240565b6112fb565b346101d15760003660031901126101d15760206040517f46609dc3da421dc12c45501c330683ebeabac9565aeed8893f72929e506c49fd8152f35b346101d15760403660031901126101d157602060ff610d90610fcb6101bb565b610fd36101d6565b6001600160a01b0391821660009081526001865260408082209290931681526020919091522090565b346101d15760a03660031901126101d1576110156101bb565b61101d6101d6565b60843567ffffffffffffffff81116101d15761103d9036906004016106fc565b906001600160a01b038381169033821415806110de575b6110b75782161561109e5715610ce7576107ea926110966064356044359160405192600184526020840152604083019160018352606084015260808301604052565b929091611589565b604051632bfa23e760e11b815260006004820152602490fd5b60405163711bec9160e11b81523360048201526001600160a01b0386166024820152604490fd5b50600082815260016020908152604080832033845290915290205460ff1615611054565b346101d15760603660031901126101d15761111b6101bb565b6001600160a01b03811633811415806111a0575b6111795715610ce7576107ea9061116a6044356024359160405192600184526020840152604083019160018352606084015260808301604052565b916000604051610ce18161062c565b60405163711bec9160e11b81523360048201526001600160a01b0383166024820152604490fd5b50600081815260016020908152604080832033845290915290205460ff161561112f565b3360009081527f71cb879fb9263b7c8d892d1b703d73b0b8dff397bfac17fd90416fd4de3522b1602052604090207f46609dc3da421dc12c45501c330683ebeabac9565aeed8893f72929e506c49fd9060ff905b5416156112225750565b6044906040519063e2517d3f60e01b82523360048301526024820152fd5b6000818152600360209081526040808320338452909152902060ff90611218565b600090808252600360205260ff61128d84604085209060018060a01b0316600052602052604060002090565b54166112f5578082526003602090815260408084206001600160a01b038616600090815292529020805460ff1916600117905533926001600160a01b0316917f2f8788117e7eff1d82e926ec794901d17c78024a50270940304540a733656f0d9080a4600190565b50905090565b600090808252600360205260ff61132784604085209060018060a01b0316600052602052604060002090565b5416156112f5578082526003602090815260408084206001600160a01b038616600090815292529020805460ff1916905533926001600160a01b0316917ff6391f5c32d9c69d2a47ea670b442974b53935d1edc7fd64eb21e047a839171b9080a4600190565b634e487b7160e01b600052601160045260246000fd5b60001981146113b25760010190565b61138d565b80518210156113cb5760209160051b010190565b634e487b7160e01b600052603260045260246000fd5b919091805183518082036114845750508051906113fd8261066a565b9161140b6040519384610648565b80835261141a601f199161066a565b0190602091368385013760005b815181101561147c57600581901b8281018401519087018401516000908152602081815260408083206001600160a01b0390941683529290522054611477919061147182876113b7565b526113a3565b611427565b509193505050565b604051635b05999160e01b815260048101919091526024810191909152604490fd5b9291926114b4848383612018565b6001600160a01b031615611523575b6000805b82518210156115115761150b906114de83876113b7565b51906114fe6114ed85876113b7565b516000526005602052604060002090565b82815403905501916113a3565b906114c7565b91505061096791925060065403600655565b6000805b825182101561156e576115626115689161154184886113b7565b51906115506114ed86886113b7565b61155b83825461200b565b905561200b565b916113a3565b90611527565b611584915061157f9060065461200b565b600655565b6114c3565b9193929061159982868386612323565b6001600160a01b0383811615611651575b811615806115f7575b156115c0575b5050505050565b84516001036115e6576020806115dc960151920151923361185b565b38808080806115b9565b6115f2949192336119a7565b6115dc565b94939092600093845b8651861015611639576116339061161787876113b7565b51906116266114ed898b6113b7565b82815403905501956113a3565b94611600565b61164c9193969792955060065403600655565b6115b3565b95919260009491855b875187101561168f576116836116899161167489896113b7565b51906115506114ed8b8d6113b7565b966113a3565b9561165a565b6116a79193965061157f90989295949860065461200b565b6115aa565b908160209103126101d1575161043b8161024d565b909260a09261043b9594600180861b0316835260006020840152604083015260608201528160808201520190610405565b919261043b95949160a094600180871b038092168552166020840152604083015260608201528160808201520190610405565b6040513d6000823e3d90fd5b3d1561175c573d90611742826106e0565b916117506040519384610648565b82523d6000602084013e565b606090565b9293919093843b611773575050505050565b602091611796604051948593849363f23a6e6160e01b98898652600486016116c1565b038160006001600160a01b0388165af16000918161182b575b506117ee57826117bd611731565b80519190826117e757604051632bfa23e760e11b81526001600160a01b0383166004820152602490fd5b9050602001fd5b6001600160e01b03191603611808575038808080806115b9565b604051632bfa23e760e11b81526001600160a01b03919091166004820152602490fd5b61184d91925060203d8111611854575b6118458183610648565b8101906116ac565b90386117af565b503d61183b565b939290949194853b611870575b505050505050565b611893602093604051958694859463f23a6e6160e01b998a8752600487016116f2565b038160006001600160a01b0388165af1600091816118d5575b506118ba57826117bd611731565b6001600160e01b031916036118085750388080808080611868565b6118ee91925060203d8111611854576118458183610648565b90386118ac565b9261192461043b95936119329360018060a01b031686526000602087015260a0604087015260a0860190610b0e565b908482036060860152610b0e565b916080818403910152610405565b939061043b9593611924916119329460018060a01b03809216885216602087015260a0604087015260a0860190610b0e565b9293919093843b611984575050505050565b602091611796604051948593849363bc197c8160e01b98898652600486016118f5565b939290949194853b6119bb57505050505050565b611893602093604051958694859463bc197c8160e01b998a875260048701611940565b818102929181159184041417156113b257565b6001600160a01b03909116815260406020820181905261043b92910190610405565b611a2a611a1e611ccc565b6305f5e10034046119de565b611a3b82611a36611c57565b6119de565b03611a5e57604051635c0b206f60e01b8152336004820152346024820152604490fd5b60405180611a7460208201602090600081520190565b0391611a88601f1993848101845283610648565b604051600080356001600160e01b03191660208301523360601b6bffffffffffffffffffffffff1916602483015293611acd9082603881015b03908101835282610648565b600b54611af090611ae4906001600160a01b031681565b6001600160a01b031690565b600c546001600160a01b0316813b15611b8d57918591611b2895949360405180978194829363938c054f60e01b8452600484016119f1565b039134905af1928315611b8857611b4593611b6f575b5033611b91565b337f0f6798a560793a54c3bcfe86a93cde1e73087d944c0ea20544137d41213968858280a3600190565b80611b7c611b8292610613565b806105a5565b38611b3e565b611725565b8580fd5b9091906001600160a01b0381161561109e5760405192600180855260208501946000865260408101918083526060820193845260808201604052611bd68383876121e8565b60008082805b611c17575b505061157f611bf29160065461200b565b815103611c09575050610967935190519133611761565b915091610967945033611972565b90918451831015611c4f57611c42611c4891611c3385896113b7565b51906115506114ed878a6113b7565b926113a3565b9080611bdc565b915080611be1565b600e5442101580611ca9575b15611c6e5760105490565b60115442101580611c9d575b15611c855760135490565b60405163781d698f60e11b8152426004820152602490fd5b50601254421115611c7a565b50600f54421115611c63565b519069ffffffffffffffffffff821682036101d157565b600d54604051633fabe5a360e21b81529060a090829060049082906001600160a01b03165afa8015611b8857600090611d0b575b6305f5e10091500590565b60a0823d8211611d56575b81611d2360a09383610648565b81010312611d53575080611d3b6305f5e10092611cb5565b50611d4d608060208301519201611cb5565b50611d00565b80fd5b3d9150611d16565b611d69611a1e611ccc565b611d7582611a36611c57565b1180611e2e575b15611d9f57604051635c0b206f60e01b8152336004820152346024820152604490fd5b6040519081611dcf8460208301603491600082526bffffffffffffffffffffffff199060601b1660208201520190565b03611de2601f1991828101855284610648565b604051600080356001600160e01b0319166020830152606095861b6bffffffffffffffffffffffff1990811660248401523390961b909516603882015290611acd9082604c8101611ac1565b50611e3f611e3b83611e44565b1590565b611d7c565b600a54604051627eeac760e11b81526001600160a01b039283166004820152600260248201529160209183916044918391165afa908115611b8857600091611e8d575b50151590565b906020823d8211611eb6575b81611ea660209383610648565b81010312611d5357505138611e87565b3d9150611e99565b90611ed1602092828151948592016103e2565b0190565b90604051918260207468747470733a2f2f697066732e696f2f697066732f60581b81830152600060075491611f09836108f2565b906001938481169081600014611fb35750600114611f58575b5050602f60f81b81526109679360059392611f3e920190611ebe565b64173539b7b760d91b815203601a19810185520183610648565b90915060076000527fa66cc928b5edb82af9bd49922954155ab7b0942694bea4ce44661d9a8736c6886000905b838210611f9c575050508201603501836005611f22565b805489830160350152889550908201908401611f85565b60ff19166035808801919091528315159093028601909201925085915060059050611f22565b90611fe3826106e0565b611ff06040519182610648565b8281528092612001601f19916106e0565b0190602036910137565b919082018092116113b257565b92919060049060ff8254166121d857805183518082036121b357505060005b815181101561211257600581901b828101602090810151918601015187906001600160a01b038216612075575b505050612070906113a3565b612037565b6120a48261208d856000526000602052604060002090565b9060018060a01b0316600052602052604060002090565b548181106120d5579161208d6120cc9261207096959403936000526000602052604060002090565b55908638612064565b604080516303dee4c560e01b81526001600160a01b0390941684890190815260208101929092528101919091526060810183905281906080010390fd5b506000939492915060018151148414612174576020908101519181015160408051938452918301526001600160a01b039092169133917fc3d58168c5ae7397731d063d5bbf3d657854427343f4c083240f7aacaa2d0f6291819081015b0390a4565b6040516001600160a01b039093169233927f4a39dc06d4c0dbc64b70af90fd698a233a518aa5d07e595d983b8c0526c8f7fb92829161216f9183612519565b60408051635b05999160e01b8152808601938452602084019290925290918291010390fd5b5060405163d93c066560e01b8152fd5b91909160ff6004541661231157825182519081810361148457505060005b835181101561227257600581901b8481016020908101519185010151612240929184906001600160a01b038216612245575b5050506113a3565b612206565b6122689161208d612260926000526000602052604060002090565b91825461200b565b9055388381612238565b509160018151146000146122d2576020908101519181015160408051938452918301526001600160a01b039092169160009133917fc3d58168c5ae7397731d063d5bbf3d657854427343f4c083240f7aacaa2d0f6291908190810161216f565b7f4a39dc06d4c0dbc64b70af90fd698a233a518aa5d07e595d983b8c0526c8f7fb61216f6000939460405191829160018060a01b031696339583612519565b60405163d93c066560e01b8152600490fd5b939260049260ff84541661250857805182518082036124e357505060005b815181101561243a57600581901b82810160209081015191850101516001600160a01b03929186908a85166123ad575b612383948216612388575050506113a3565b612341565b6123a39161208d612260926000526000602052604060002090565b9055388581612238565b91929390506123ca8a61208d846000526000602052604060002090565b548381106123fd5791879184612383969594036123f58d61208d856000526000602052604060002090565b559450612371565b604080516303dee4c560e01b81526001600160a01b038d16818c019081526020810193909352908201859052606082018490529081906080010390fd5b509091925093929360018151146000146124a0576020908101519181015160408051938452918301526001600160a01b03928316939092169133917fc3d58168c5ae7397731d063d5bbf3d657854427343f4c083240f7aacaa2d0f62918190810161216f565b6040516001600160a01b03938416949093169233927f4a39dc06d4c0dbc64b70af90fd698a233a518aa5d07e595d983b8c0526c8f7fb92829161216f9183612519565b60408051635b05999160e01b8152808801938452602084019290925290918291010390fd5b60405163d93c066560e01b81528490fd5b909161253061043b93604084526040840190610b0e565b916020818403910152610b0e56fea26469706673582212208c6734e159b9f6e49b19a282a0d91dab8d637e2edddbe22d39e4ce1f5a58eec864736f6c634300081400332f8788117e7eff1d82e926ec794901d17c78024a50270940304540a733656f0d",
    "linkReferences": {}
  },
  "methodIdentifiers": {
    "CARTESI_DAPP()": "dc36d950",
    "DEFAULT_ADMIN_ROLE()": "a217fddf",
    "balanceOf(address,uint256)": "00fdd58e",
    "balanceOfBatch(address[],uint256[])": "4e1273f4",
    "burn(address,uint256,uint256)": "f5298aca",
    "burnBatch(address,uint256[],uint256[])": "6b20c454",
    "exists(uint256)": "4f558e79",
    "getRoleAdmin(bytes32)": "248a9ca3",
    "grantRole(bytes32,address)": "2f2ff15d",
    "hasRole(bytes32,address)": "91d14854",
    "isApprovedForAll(address,address)": "e985e9c5",
    "launchStrategy(uint256,uint256,uint256,uint256,uint256,uint256)": "0c876888",
    "launchStrategyData()": "97ce5981",
    "mint(uint256)": "a0712d68",
    "mintWithAffiliate(uint256,address)": "a98a3c19",
    "paused()": "5c975abb",
    "renounceRole(bytes32,address)": "36568abe",
    "revokeRole(bytes32,address)": "d547741f",
    "safeBatchTransferFrom(address,address,uint256[],uint256[],bytes)": "2eb2c2d6",
    "safeTransferFrom(address,address,uint256,uint256,bytes)": "f242432a",
    "setApprovalForAll(address,bool)": "a22cb465",
    "supportsInterface(bytes4)": "01ffc9a7",
    "totalSupply()": "18160ddd",
    "totalSupply(uint256)": "bd85b039",
    "tribeData()": "46f7a53d",
    "uri(uint256)": "0e89341c"
  },
  "id": 54
}