{
  "abi": [
    {
      "inputs": [
        {
          "internalType": "address",
          "name": "_inputBox",
          "type": "address"
        },
        {
          "internalType": "address",
          "name": "_etherPortal",
          "type": "address"
        },
        {
          "internalType": "address",
          "name": "_parityRouter",
          "type": "address"
        }
      ],
      "stateMutability": "nonpayable",
      "type": "constructor"
    },
    {
      "inputs": [],
      "name": "AccessControlBadConfirmation",
      "type": "error"
    },
    {
      "inputs": [
        {
          "internalType": "address",
          "name": "account",
          "type": "address"
        },
        {
          "internalType": "bytes32",
          "name": "neededRole",
          "type": "bytes32"
        }
      ],
      "name": "AccessControlUnauthorizedAccount",
      "type": "error"
    },
    {
      "inputs": [
        {
          "internalType": "address",
          "name": "sender",
          "type": "address"
        }
      ],
      "name": "TribeFactoryFailed",
      "type": "error"
    },
    {
      "anonymous": false,
      "inputs": [
        {
          "indexed": false,
          "internalType": "uint256",
          "name": "timestamp",
          "type": "uint256"
        }
      ],
      "name": "Heartbeat",
      "type": "event"
    },
    {
      "anonymous": false,
      "inputs": [
        {
          "indexed": true,
          "internalType": "bytes32",
          "name": "role",
          "type": "bytes32"
        },
        {
          "indexed": true,
          "internalType": "bytes32",
          "name": "previousAdminRole",
          "type": "bytes32"
        },
        {
          "indexed": true,
          "internalType": "bytes32",
          "name": "newAdminRole",
          "type": "bytes32"
        }
      ],
      "name": "RoleAdminChanged",
      "type": "event"
    },
    {
      "anonymous": false,
      "inputs": [
        {
          "indexed": true,
          "internalType": "bytes32",
          "name": "role",
          "type": "bytes32"
        },
        {
          "indexed": true,
          "internalType": "address",
          "name": "account",
          "type": "address"
        },
        {
          "indexed": true,
          "internalType": "address",
          "name": "sender",
          "type": "address"
        }
      ],
      "name": "RoleGranted",
      "type": "event"
    },
    {
      "anonymous": false,
      "inputs": [
        {
          "indexed": true,
          "internalType": "bytes32",
          "name": "role",
          "type": "bytes32"
        },
        {
          "indexed": true,
          "internalType": "address",
          "name": "account",
          "type": "address"
        },
        {
          "indexed": true,
          "internalType": "address",
          "name": "sender",
          "type": "address"
        }
      ],
      "name": "RoleRevoked",
      "type": "event"
    },
    {
      "anonymous": false,
      "inputs": [
        {
          "indexed": true,
          "internalType": "address",
          "name": "sender",
          "type": "address"
        },
        {
          "indexed": true,
          "internalType": "address",
          "name": "tribe",
          "type": "address"
        },
        {
          "indexed": true,
          "internalType": "address",
          "name": "supporters",
          "type": "address"
        }
      ],
      "name": "TribeCreated",
      "type": "event"
    },
    {
      "inputs": [],
      "name": "DEFAULT_ADMIN_ROLE",
      "outputs": [
        {
          "internalType": "bytes32",
          "name": "",
          "type": "bytes32"
        }
      ],
      "stateMutability": "view",
      "type": "function"
    },
    {
      "inputs": [],
      "name": "MANAGER_ROLE",
      "outputs": [
        {
          "internalType": "bytes32",
          "name": "",
          "type": "bytes32"
        }
      ],
      "stateMutability": "view",
      "type": "function"
    },
    {
      "inputs": [
        {
          "internalType": "string",
          "name": "cid",
          "type": "string"
        },
        {
          "internalType": "bytes",
          "name": "input",
          "type": "bytes"
        }
      ],
      "name": "createTribe",
      "outputs": [
        {
          "internalType": "address",
          "name": "tribe",
          "type": "address"
        },
        {
          "internalType": "address",
          "name": "supporters",
          "type": "address"
        }
      ],
      "stateMutability": "nonpayable",
      "type": "function"
    },
    {
      "inputs": [
        {
          "internalType": "bytes32",
          "name": "role",
          "type": "bytes32"
        }
      ],
      "name": "getRoleAdmin",
      "outputs": [
        {
          "internalType": "bytes32",
          "name": "",
          "type": "bytes32"
        }
      ],
      "stateMutability": "view",
      "type": "function"
    },
    {
      "inputs": [
        {
          "internalType": "bytes32",
          "name": "role",
          "type": "bytes32"
        },
        {
          "internalType": "address",
          "name": "account",
          "type": "address"
        }
      ],
      "name": "grantRole",
      "outputs": [],
      "stateMutability": "nonpayable",
      "type": "function"
    },
    {
      "inputs": [
        {
          "internalType": "bytes32",
          "name": "role",
          "type": "bytes32"
        },
        {
          "internalType": "address",
          "name": "account",
          "type": "address"
        }
      ],
      "name": "hasRole",
      "outputs": [
        {
          "internalType": "bool",
          "name": "",
          "type": "bool"
        }
      ],
      "stateMutability": "view",
      "type": "function"
    },
    {
      "inputs": [],
      "name": "heartbeat",
      "outputs": [
        {
          "internalType": "bool",
          "name": "",
          "type": "bool"
        }
      ],
      "stateMutability": "nonpayable",
      "type": "function"
    },
    {
      "inputs": [
        {
          "internalType": "bytes32",
          "name": "role",
          "type": "bytes32"
        },
        {
          "internalType": "address",
          "name": "callerConfirmation",
          "type": "address"
        }
      ],
      "name": "renounceRole",
      "outputs": [],
      "stateMutability": "nonpayable",
      "type": "function"
    },
    {
      "inputs": [
        {
          "internalType": "bytes32",
          "name": "role",
          "type": "bytes32"
        },
        {
          "internalType": "address",
          "name": "account",
          "type": "address"
        }
      ],
      "name": "revokeRole",
      "outputs": [],
      "stateMutability": "nonpayable",
      "type": "function"
    },
    {
      "inputs": [
        {
          "internalType": "address",
          "name": "_cartesiDapp",
          "type": "address"
        }
      ],
      "name": "setCartesiDapp",
      "outputs": [
        {
          "internalType": "bool",
          "name": "",
          "type": "bool"
        }
      ],
      "stateMutability": "nonpayable",
      "type": "function"
    },
    {
      "inputs": [
        {
          "internalType": "bytes4",
          "name": "interfaceId",
          "type": "bytes4"
        }
      ],
      "name": "supportsInterface",
      "outputs": [
        {
          "internalType": "bool",
          "name": "",
          "type": "bool"
        }
      ],
      "stateMutability": "view",
      "type": "function"
    },
    {
      "inputs": [],
      "name": "tribesFactoryData",
      "outputs": [
        {
          "internalType": "address",
          "name": "inputBox",
          "type": "address"
        },
        {
          "internalType": "address",
          "name": "etherPortal",
          "type": "address"
        },
        {
          "internalType": "address",
          "name": "cartesiDapp",
          "type": "address"
        },
        {
          "internalType": "address",
          "name": "parityRouter",
          "type": "address"
        }
      ],
      "stateMutability": "view",
      "type": "function"
    }
  ],
  "bytecode": {
    "object": "0x6080346100b657601f62005c1238819003918201601f19168301916001600160401b038311848410176100bb578084926060946040528339810103126100b657610048816100d1565b90610061604061005a602084016100d1565b92016100d1565b60018060a01b0380928160018060a01b03199516856001541617600155168360025416176002551690600454161760045561009b336100e5565b506100a533610164565b506040516159ec9081620002068239f35b600080fd5b634e487b7160e01b600052604160045260246000fd5b51906001600160a01b03821682036100b657565b6001600160a01b031660008181527fad3228b676f7d3cd4284a5443f17f1962b36e491b30a40b2405849e597ba5fb5602052604081205490919060ff1661016057818052816020526040822081835260205260408220600160ff19825416179055339160008051602062005bf28339815191528180a4600190565b5090565b6001600160a01b031660008181527fe84508f2c7fa9c351146748b3025cb78b45df37d868e48c6a75102fecdeee64560205260408120549091907f241ecf16d79d0f8dbfb92cbc07fe17840425976cf0667f022fe9877caa831b089060ff1661020057808352826020526040832082845260205260408320600160ff1982541617905560008051602062005bf2833981519152339380a4600190565b50509056fe60806040818152600491823610156200001757600080fd5b60009283358060e01c92836301ffc9a714620006f05750826315a527f614620006a3578263248a9ca314620006765782632f2ff15d146200064557826336568abe14620005f75782633defb96214620004e657826391d14854146200049b578263a217fddf146200047d578263b8c729c414620001ec57508163d547741f14620001a5578163d96e780814620000f7575063ec87621c14620000b857600080fd5b34620000f35781600319360112620000f357602090517f241ecf16d79d0f8dbfb92cbc07fe17840425976cf0667f022fe9877caa831b088152f35b5080fd5b905034620001a1576020366003190112620001a15780356001600160a01b03811693908490036200019e5760ff837f241ecf16d79d0f8dbfb92cbc07fe17840425976cf0667f022fe9877caa831b089283815280602052818120338252602052205416156200018357602083856bffffffffffffffffffffffff60a01b60035416176003555160018152f35b604492519163e2517d3f60e01b835233908301526024820152fd5b80fd5b8280fd5b91905034620001a15780600319360112620001a157620001e89135620001e26001620001d062000749565b938387528660205286200154620007e9565b620008ad565b5080f35b84925034620001a15783600319360112620001a15767ffffffffffffffff91803583811162000479573660238201121562000479576200023690369060248185013591016200079e565b9060243584811162000475573660238201121562000475576200026390369060248185013591016200079e565b9060018060a01b0391826001541694836003541691895161257f808201908282108b83111762000462579082916200099783396060958682528d620002ab8884018c62000948565b9260209c8d820152015203908af095861562000445578560035416866002541687875416918d5193612aa1808601809e8782109111176200044f578f90928d8f95936200030a9089989662002f168a3960a0885260a088019062000948565b9501528d01526080898b169c8d89820152015203908af0801562000445578a9693869389969383620003c1996200039a95169a5197889363ffffffff60e01b168a85015233851b60248501526bffffffffffffffffffffffff198092861b166038850152841b16604c8301526200038a815180928a868601910162000923565b8101038c81018652018462000765565b8882600154169260035416918b5196879586948593631789cd6360e01b855284016200096f565b03925af180156200043b5790839162000408575b505082818651957f045e45eddccdc429e45ff255cae907ea86d2779843c327176dd5dc57638a3d2e339180a48352820152f35b813d831162000433575b6200041e818362000765565b810103126200042f578186620003d5565b8380fd5b503d62000412565b86513d87823e3d90fd5b8a513d8b823e3d90fd5b634e487b7160e01b8f5260418a5260248ffd5b634e487b7160e01b8c526041875260248cfd5b8580fd5b8480fd5b50505034620000f35781600319360112620000f35751908152602090f35b50905034620001a15781600319360112620001a1578160209360ff92620004c162000749565b903582528186528282206001600160a01b039091168252855220549151911615158152f35b93915034620000f35781600319360112620000f35782519060209463ffffffff60e01b16858301528082528382019082821067ffffffffffffffff831117620005e45750808452848160018060a01b03818682600154169260035416631789cd6360e01b8352876200056081603f1993604482016200096f565b0301925af18015620005da5790859291620005a8575b50507f89fa7599b0d9bfca448ea0eda6c061927c29af53b03bbf51b770ec8caf3f7e2d91508251428152a15160018152f35b82903d8411620005d1575b81620005bf9162000765565b810103126200019e5782818062000576565b3d9150620005b3565b84513d85823e3d90fd5b634e487b7160e01b845260419052602483fd5b50838334620000f35780600319360112620000f3576200061662000749565b90336001600160a01b03831603620006365750620001e8919235620008ad565b5163334bd91960e11b81528390fd5b84828534620001a15780600319360112620001a157620001e89135620006706001620001d062000749565b6200082e565b50905034620001a1576020366003190112620001a157816020936001923581528085522001549051908152f35b50905034620001a15782600319360112620001a157600154600254600354925484516001600160a01b03938416815291831660208301529282169381019390935216606082015260809150f35b85908334620001a1576020366003190112620001a1573563ffffffff60e01b8116809103620001a15760209250637965db0b60e01b811490811562000737575b5015158152f35b6301ffc9a760e01b1490508362000730565b602435906001600160a01b03821682036200076057565b600080fd5b90601f8019910116810190811067ffffffffffffffff8211176200078857604052565b634e487b7160e01b600052604160045260246000fd5b92919267ffffffffffffffff8211620007885760405191620007cb601f8201601f19166020018462000765565b82948184528183011162000760578281602093846000960137010152565b80600052600060205260406000203360005260205260ff6040600020541615620008105750565b6044906040519063e2517d3f60e01b82523360048301526024820152fd5b9060009180835282602052604083209160018060a01b03169182845260205260ff60408420541615600014620008a857808352826020526040832082845260205260408320600160ff198254161790557f2f8788117e7eff1d82e926ec794901d17c78024a50270940304540a733656f0d339380a4600190565b505090565b9060009180835282602052604083209160018060a01b03169182845260205260ff604084205416600014620008a85780835282602052604083208284526020526040832060ff1981541690557ff6391f5c32d9c69d2a47ea670b442974b53935d1edc7fd64eb21e047a839171b339380a4600190565b60005b838110620009375750506000910152565b818101518382015260200162000926565b90602091620009638151809281855285808601910162000923565b601f01601f1916010190565b6001600160a01b039091168152604060208201819052620009939291019062000948565b9056fe608060405234620002f3576200257f803803806200001d81620002f8565b9283398101606082820312620002f35781516001600160401b039290838111620002f3578101601f838183011215620002f3578151938585116200028c57602094601f19936200007384830186168801620002f8565b92828452878383010111620002f357869060005b838110620002de57505060009183010152620000b36040620000ab8787016200031e565b95016200031e565b9460405181810190808210898311176200028c5760009160405252600254936001948581811c91168015620002d3575b838210146200026b57848111620002a2575b50600060025582519788116200028c576006548581811c9116801562000281575b838210146200026b578481116200021f575b5081938811600114620001b257505094809281926200019597600094620001a6575b50501b916000199060031b1c1916176006555b60018060a01b038060018060a01b0319921682600854161760085582169060095416176009556200018e3362000333565b50620003b4565b506040516121079081620004588239f35b0151925038806200014a565b87939192971696600660005282600020926000905b8982106200020757505083620001959810620001ed575b505050811b016006556200015d565b015160001960f88460031b161c19169055388080620001de565b808785968294968601518155019501930190620001c7565b60066000528260002085808b0160051c820192858c1062000261575b0160051c019086905b8281106200025457505062000128565b6000815501869062000244565b925081926200023b565b634e487b7160e01b600052602260045260246000fd5b90607f169062000116565b634e487b7160e01b600052604160045260246000fd5b6002600052858584600020920160051c8201915b828110620002c6575050620000f5565b60008155018690620002b6565b90607f1690620000e3565b81810183015185820184015288920162000087565b600080fd5b6040519190601f01601f191682016001600160401b038111838210176200028c57604052565b51906001600160a01b0382168203620002f357565b6001600160a01b031660008181527f3617319a054d772f909f7c479a2cebe5066e836a939412e32403c99029b92eff602052604081205490919060ff16620003b05781805260036020526040822081835260205260408220600160ff1982541617905533916000805160206200255f8339815191528180a4600190565b5090565b6001600160a01b031660008181527f71cb879fb9263b7c8d892d1b703d73b0b8dff397bfac17fd90416fd4de3522b160205260408120549091907f46609dc3da421dc12c45501c330683ebeabac9565aeed8893f72929e506c49fd9060ff16620004525780835260036020526040832082845260205260408320600160ff198254161790556000805160206200255f833981519152339380a4600190565b50509056fe6080604052600436101561001257600080fd5b60003560e01c8062fdd58e1461018657806301ffc9a7146101815780630e89341c1461017c57806318160ddd14610177578063248a9ca3146101725780632eb2c2d61461016d5780632f2ff15d1461016857806336568abe14610163578063423f4b321461015e5780634e1273f4146101595780634f558e79146101545780636b20c4541461014f57806391d148541461014a578063a217fddf14610145578063a22cb46514610140578063bd85b0391461013b578063cfe9315414610136578063d547741f14610131578063dc36d9501461012c578063e7d3fe6b14610127578063e985e9c514610122578063f242432a1461011d5763f5298aca1461011857600080fd5b6110f0565b611003565b610fb2565b610ee3565b610ea8565b610e69565b610d48565b610c24565b610b68565b610b4c565b610afa565b610a0e565b6109e0565b610926565b6107c8565b610781565b610742565b610619565b61049c565b61047e565b610313565b61022f565b6101d0565b600435906001600160a01b03821682036101a157565b600080fd5b602435906001600160a01b03821682036101a157565b35906001600160a01b03821682036101a157565b346101a15760403660031901126101a15760206102146101ee61018b565b6024356000526000835260406000209060018060a01b0316600052602052604060002090565b54604051908152f35b6001600160e01b03198116036101a157565b346101a15760203660031901126101a157602060043561024e8161021d565b63ffffffff60e01b16637965db0b60e01b8114908115610274575b506040519015158152f35b636cdb3d1360e11b8114915081156102a6575b8115610295575b5038610269565b6301ffc9a760e01b1490503861028e565b6303a24d0760e21b81149150610287565b60005b8381106102ca5750506000910152565b81810151838201526020016102ba565b906020916102f3815180928185528580860191016102b7565b601f01601f1916010190565b9060206103109281815201906102da565b90565b346101a15760203660031901126101a1576000600435807a184f03e93ff9f4daa797ed6e38ed64bf6a1f01000000000000000080821015610470575b506d04ee2d6d415b85acef810000000080831015610461575b50662386f26fc1000080831015610452575b506305f5e10080831015610443575b5061271080831015610434575b506064821015610424575b600a8092101561041a575b6001908160216103bd828701611c1d565b95860101905b6103e4575b6103e06103d486611b19565b604051918291826102ff565b0390f35b600019019083906f181899199a1a9b1b9c1cb0b131b232b360811b8282061a835304918215610415579190826103c3565b6103c8565b91600101916103ac565b91906064600291049101916103a1565b60049193920491019138610396565b60089193920491019138610389565b6010919392049101913861037a565b60209193920491019138610368565b60409350810491503861034f565b346101a15760003660031901126101a1576020600554604051908152f35b346101a15760203660031901126101a15760043560005260036020526020600160406000200154604051908152f35b634e487b7160e01b600052604160045260246000fd5b6020810190811067ffffffffffffffff8211176104fd57604052565b6104cb565b6040810190811067ffffffffffffffff8211176104fd57604052565b90601f8019910116810190811067ffffffffffffffff8211176104fd57604052565b67ffffffffffffffff81116104fd5760051b60200190565b81601f820112156101a15780359161056f83610540565b9261057d604051948561051e565b808452602092838086019260051b8201019283116101a1578301905b8282106105a7575050505090565b81358152908301908301610599565b67ffffffffffffffff81116104fd57601f01601f191660200190565b81601f820112156101a1578035906105e9826105b6565b926105f7604051948561051e565b828452602083830101116101a157816000926020809301838601378301015290565b346101a15760a03660031901126101a15761063261018b565b61063a6101a6565b906044359167ffffffffffffffff908184116101a15761065f60049436908601610558565b906064358381116101a1576106779036908701610558565b926084359081116101a15761068f90369087016105d2565b936001600160a01b0380821690338214158061071e575b6106f1578316156106d957156106c2576106c09550611682565b005b604051626a0d4560e21b8152600081880152602490fd5b604051632bfa23e760e11b8152600081890152602490fd5b6040805163711bec9160e11b815233818b019081526001600160a01b038616602082015290918291010390fd5b50600082815260016020908152604080832033845290915290205460ff16156106a6565b346101a15760403660031901126101a1576106c06004356107616101a6565b9080600052600360205261077c60016040600020015461122e565b61124f565b346101a15760403660031901126101a15761079a6101a6565b336001600160a01b038216036107b6576106c0906004356112e9565b60405163334bd91960e11b8152600490fd5b346101a1576000806003193601126108de576040516001600160e01b03198235166020808301919091526bffffffffffffffffffffffff193360601b166024830152601882526108699161081d60388261051e565b60085461084090610834906001600160a01b031681565b6001600160a01b031690565b6009546001600160a01b031685604051809681958294631789cd6360e01b845260048401611ae0565b03925af180156108d9576108ab575b50604051907fb9c2b8c1c49e8e977c246db6f12c8eb16dbb9e39a760410ce9767153852e6c5c339180a260018152602090f35b6108cb9060203d81116108d2575b6108c3818361051e565b810190611ad1565b5038610878565b503d6108b9565b611818565b80fd5b90815180825260208080930193019160005b828110610901575050505090565b8351855293810193928101926001016108f3565b9060206103109281815201906108e1565b346101a15760403660031901126101a15760043567ffffffffffffffff8082116101a157366023830112156101a157816004013561096381610540565b92610971604051948561051e565b81845260209160248386019160051b830101913683116101a157602401905b8282106109c957856024358681116101a1576103e0916109b76109bd923690600401610558565b906113cf565b60405191829182610915565b8380916109d5846101bc565b815201910190610990565b346101a15760203660031901126101a157600435600052600460205260206040600020541515604051908152f35b346101a15760603660031901126101a157610a2761018b565b67ffffffffffffffff6024358181116101a157610a48903690600401610558565b906044359081116101a157610a61903690600401610558565b906001600160a01b0383163381141580610ad6575b610aaf5715610a97576106c0926000604051610a91816104e1565b52611494565b604051626a0d4560e21b815260006004820152602490fd5b60405163711bec9160e11b81523360048201526001600160a01b0385166024820152604490fd5b50600081815260016020908152604080832033845290915290205460ff1615610a76565b346101a15760403660031901126101a157602060ff610b40610b1a6101a6565b6004356000526003845260406000209060018060a01b0316600052602052604060002090565b54166040519015158152f35b346101a15760003660031901126101a157602060405160008152f35b346101a15760403660031901126101a157610b8161018b565b60243590811515908183036101a1576001600160a01b038116928315610c0c57610bcd610bde9233600052600160205260406000209060018060a01b0316600052602052604060002090565b9060ff801983541691151516179055565b6040519081527f17307eab39ab6107e8899845ad3d59bd9653f200f220920489ca2b5937696c3160203392a3005b60405162ced3e160e81b815260006004820152602490fd5b346101a15760203660031901126101a15760043560005260046020526020604060002054604051908152f35b90600182811c92168015610c80575b6020831014610c6a57565b634e487b7160e01b600052602260045260246000fd5b91607f1691610c5f565b6040519060008260075491610c9e83610c50565b80835292600190818116908115610d265750600114610cc7575b50610cc59250038361051e565b565b6007600090815291507fa66cc928b5edb82af9bd49922954155ab7b0942694bea4ce44661d9a8736c6885b848310610d0b5750610cc5935050810160200138610cb8565b81935090816020925483858a01015201910190918592610cf2565b905060209250610cc594915060ff191682840152151560051b82010138610cb8565b346101a1576000806003193601126108de576040519080600654610d6b81610c50565b80855291600191808316908115610e3f5750600114610de4575b610dc785610d958187038261051e565b610d9d610c8a565b60018060a01b0390610dd582600854169260095416916040519586956080875260808701906102da565b9085820360208701526102da565b91604084015260608301520390f35b9250600683527ff652222313e28459528d920b65115c16c04f3efc82aaedc97be59f3f377c0d3f5b828410610e27575050508101602001610d9582610dc7610d85565b80546020858701810191909152909301928101610e0c565b869550610dc796935060209250610d9594915060ff191682840152151560051b8201019293610d85565b346101a15760403660031901126101a1576106c0600435610e886101a6565b90806000526003602052610ea360016040600020015461122e565b6112e9565b346101a15760003660031901126101a15760206040517f46609dc3da421dc12c45501c330683ebeabac9565aeed8893f72929e506c49fd8152f35b346101a15760603660031901126101a1576044356001600160a01b03811690600435908281036101a157610f156111b2565b60405182602082015260208152610f2b81610502565b8315610f9957610f6791610f61602435859160405192600184526020840152604083019160018352606084015260808301604052565b91611577565b604051917f0f6798a560793a54c3bcfe86a93cde1e73087d944c0ea20544137d4121396885600080a360018152602090f35b604051632bfa23e760e11b815260006004820152602490fd5b346101a15760403660031901126101a157602060ff610b40610fd261018b565b610fda6101a6565b6001600160a01b0391821660009081526001865260408082209290931681526020919091522090565b346101a15760a03660031901126101a15761101c61018b565b6110246101a6565b60843567ffffffffffffffff81116101a1576110449036906004016105d2565b906001600160a01b038381169033821415806110cc575b6110a557821615610f995715610a97576106c09261109d6064356044359160405192600184526020840152604083019160018352606084015260808301604052565b929091611682565b60405163711bec9160e11b81523360048201526001600160a01b0386166024820152604490fd5b50600082815260016020908152604080832033845290915290205460ff161561105b565b346101a15760603660031901126101a15761110961018b565b6001600160a01b038116338114158061118e575b6111675715610a97576106c0906111586044356024359160405192600184526020840152604083019160018352606084015260808301604052565b916000604051610a91816104e1565b60405163711bec9160e11b81523360048201526001600160a01b0383166024820152604490fd5b50600081815260016020908152604080832033845290915290205460ff161561111d565b3360009081527f71cb879fb9263b7c8d892d1b703d73b0b8dff397bfac17fd90416fd4de3522b1602052604090207f46609dc3da421dc12c45501c330683ebeabac9565aeed8893f72929e506c49fd9060ff905b5416156112105750565b6044906040519063e2517d3f60e01b82523360048301526024820152fd5b6000818152600360209081526040808320338452909152902060ff90611206565b600090808252600360205260ff61127b84604085209060018060a01b0316600052602052604060002090565b54166112e3578082526003602090815260408084206001600160a01b038616600090815292529020805460ff1916600117905533926001600160a01b0316917f2f8788117e7eff1d82e926ec794901d17c78024a50270940304540a733656f0d9080a4600190565b50905090565b600090808252600360205260ff61131584604085209060018060a01b0316600052602052604060002090565b5416156112e3578082526003602090815260408084206001600160a01b038616600090815292529020805460ff1916905533926001600160a01b0316917ff6391f5c32d9c69d2a47ea670b442974b53935d1edc7fd64eb21e047a839171b9080a4600190565b634e487b7160e01b600052601160045260246000fd5b60001981146113a05760010190565b61137b565b80518210156113b95760209160051b010190565b634e487b7160e01b600052603260045260246000fd5b919091805183518082036114725750508051906113eb82610540565b916113f9604051938461051e565b808352611408601f1991610540565b0190602091368385013760005b815181101561146a57600581901b8281018401519087018401516000908152602081815260408083206001600160a01b0390941683529290522054611465919061145f82876113a5565b52611391565b611415565b509193505050565b604051635b05999160e01b815260048101919091526024810191909152604490fd5b9291926114a2848383611c81565b6001600160a01b031615611511575b6000805b82518210156114ff576114f9906114cc83876113a5565b51906114ec6114db85876113a5565b516000526004602052604060002090565b8281540390550191611391565b906114b5565b915050610cc591925060055403600555565b6000805b825182101561155c576115506115569161152f84886113a5565b519061153e6114db86886113a5565b611549838254611c4f565b9055611c4f565b91611391565b90611515565b611572915061156d90600554611c4f565b600555565b6114b1565b93919091611586828487611e06565b600094855b84518710156115c0576115b46115ba916115a589876113a5565b519061153e6114db8b8a6113a5565b96611391565b9561158b565b6115d591959492965061156d90600554611c4f565b6001600160a01b0384161580611628575b156115f2575b50505050565b80516001036116195790602080611610959301519101519133611854565b388080806115ec565b6116239333611a65565b611610565b936000959193865b8551881015611669576116639061164789876113a5565b51906116566114db8b8a6113a5565b8281540390550197611391565b96611630565b61167d919593975095919560055403600555565b6115e6565b9193929061169282868386611f25565b6001600160a01b038381161561174a575b811615806116f0575b156116b9575b5050505050565b84516001036116df576020806116d5960151920151923361194e565b38808080806116b2565b6116eb94919233611a9a565b6116d5565b94939092600093845b86518610156117325761172c9061171087876113a5565b519061171f6114db898b6113a5565b8281540390550195611391565b946116f9565b6117459193969792955060055403600555565b6116ac565b95919260009491855b8751871015611782576115b461177c9161176d89896113a5565b519061153e6114db8b8d6113a5565b95611753565b61179a9193965061156d909892959498600554611c4f565b6116a3565b908160209103126101a157516103108161021d565b909260a0926103109594600180861b03168352600060208401526040830152606082015281608082015201906102da565b919261031095949160a094600180871b0380921685521660208401526040830152606082015281608082015201906102da565b6040513d6000823e3d90fd5b3d1561184f573d90611835826105b6565b91611843604051938461051e565b82523d6000602084013e565b606090565b9293919093843b611866575050505050565b602091611889604051948593849363f23a6e6160e01b98898652600486016117b4565b038160006001600160a01b0388165af16000918161191e575b506118e157826118b0611824565b80519190826118da57604051632bfa23e760e11b81526001600160a01b0383166004820152602490fd5b9050602001fd5b6001600160e01b031916036118fb575038808080806116b2565b604051632bfa23e760e11b81526001600160a01b03919091166004820152602490fd5b61194091925060203d8111611947575b611938818361051e565b81019061179f565b90386118a2565b503d61192e565b939290949194853b611963575b505050505050565b611986602093604051958694859463f23a6e6160e01b998a8752600487016117e5565b038160006001600160a01b0388165af1600091816119c8575b506119ad57826118b0611824565b6001600160e01b031916036118fb575038808080808061195b565b6119e191925060203d811161194757611938818361051e565b903861199f565b92611a176103109593611a259360018060a01b031686526000602087015260a0604087015260a08601906108e1565b9084820360608601526108e1565b9160808184039101526102da565b93906103109593611a1791611a259460018060a01b03809216885216602087015260a0604087015260a08601906108e1565b9293919093843b611a77575050505050565b602091611889604051948593849363bc197c8160e01b98898652600486016119e8565b939290949194853b611aae57505050505050565b611986602093604051958694859463bc197c8160e01b998a875260048701611a33565b908160209103126101a1575190565b6001600160a01b039091168152604060208201819052610310929101906102da565b90611b15602092828151948592016102b7565b0190565b90604051918260207468747470733a2f2f697066732e696f2f697066732f60581b81830152600060065491611b4d83610c50565b906001938481169081600014611bf75750600114611b9c575b5050602f60f81b8152610cc59360059392611b82920190611b02565b64173539b7b760d91b815203601a1981018552018361051e565b90915060066000527ff652222313e28459528d920b65115c16c04f3efc82aaedc97be59f3f377c0d3f6000905b838210611be0575050508201603501836005611b66565b805489830160350152889550908201908401611bc9565b60ff19166035808801919091528315159093028601909201925085915060059050611b66565b90611c27826105b6565b611c34604051918261051e565b8281528092611c45601f19916105b6565b0190602036910137565b919082018092116113a057565b9091611c73610310936040845260408401906108e1565b9160208184039101526108e1565b929190805182519081810361147257505060005b8151811015611d6657600581901b82810160209081015191850101516001600160a01b038716611cd0575b5050611ccb90611391565b611c95565b611cff87611ce8846000526000602052604060002090565b9060018060a01b0316600052602052604060002090565b54818110611d2f5787611ce8611ccb959493611d279303936000526000602052604060002090565b559038611cc0565b6040516303dee4c560e01b81526001600160a01b038916600482015260248101919091526044810182905260648101839052608490fd5b5090600092939160018151148414611dc7576020908101519181015160408051938452918301526001600160a01b039092169133917fc3d58168c5ae7397731d063d5bbf3d657854427343f4c083240f7aacaa2d0f6291819081015b0390a4565b6040516001600160a01b039093169233927f4a39dc06d4c0dbc64b70af90fd698a233a518aa5d07e595d983b8c0526c8f7fb928291611dc29183611c5c565b919091825182519081810361147257505060005b8351811015611e8657600581901b8481016020908101519185010151611e54929184906001600160a01b038216611e59575b505050611391565b611e1a565b611e7c91611ce8611e74926000526000602052604060002090565b918254611c4f565b9055388381611e4c565b50916001815114600014611ee6576020908101519181015160408051938452918301526001600160a01b039092169160009133917fc3d58168c5ae7397731d063d5bbf3d657854427343f4c083240f7aacaa2d0f62919081908101611dc2565b7f4a39dc06d4c0dbc64b70af90fd698a233a518aa5d07e595d983b8c0526c8f7fb611dc26000939460405191829160018060a01b031696339583611c5c565b939291805183519081810361147257505060005b815181101561202c57600581901b82810160209081015191860101516001600160a01b0392918590898516611fa5575b611f7b948216611f8057505050611391565b611f39565b611f9b91611ce8611e74926000526000602052604060002090565b9055388481611e4c565b9192939050611fc289611ce8846000526000602052604060002090565b54838110611ff55791869184611f7b96959403611fed8c611ce8856000526000602052604060002090565b559450611f69565b6040516303dee4c560e01b81526001600160a01b038b16600482015260248101919091526044810184905260648101839052608490fd5b50805193949391929160010361208e576020908101519181015160408051938452918301526001600160a01b03928316939092169133917fc3d58168c5ae7397731d063d5bbf3d657854427343f4c083240f7aacaa2d0f629181908101611dc2565b6040516001600160a01b03938416949093169233927f4a39dc06d4c0dbc64b70af90fd698a233a518aa5d07e595d983b8c0526c8f7fb928291611dc29183611c5c56fea2646970667358221220956edf7ae880aeacc0fdc36364915da87c8e02a57865ec4d7f202c89261a140064736f6c634300081400332f8788117e7eff1d82e926ec794901d17c78024a50270940304540a733656f0d60406080815234620003a85762002aa190813803806200001f81620003ad565b93843982019160a081840312620003a85780516001600160401b0390818111620003a857820190601f94808684011215620003a8578251938285116200037d57602094601f19946200007789830187168801620003ad565b93828552878383010111620003a857869060005b8381106200039357505060009184010152620000a9858201620003d3565b90620000b7878201620003d3565b620000d36080620000cb60608501620003d3565b9301620003d3565b885188810190808210888311176200037d576000918b5252600254956001968781811c9116801562000372575b8a8210146200035c578b81116200032b575b50600060025560ff199a6004988c8a54168a55875192831162000316576007548981811c911680156200030b575b8c821014620002f65780838d9211620002a8575b50508a9183116001146200023b57508190620001d7976000926200022f575b5050600019600383901b1c191690871b176007555b60018060a01b0380928160018060a01b0319951685600a541617600a5581861685600c541617600c551683600b541617600b551690600d541617600d55620001d033620003e8565b5062000469565b5081549460ff86166200021f577f62e78cea01bee320cd4e420270b5ea74000d11b0c9f74754ebdbfc544b05a2589495161790558251338152a15161257490816200050d8239f35b845163d93c066560e01b81528390fd5b01519050388062000173565b9082918993169060076000528b6000209160005b8d828210620002915750509883620001d79a1062000277575b505050811b0160075562000188565b015160001960f88460031b161c1916905538808062000268565b838c015185558c969094019392830192016200024f565b600760005283826000209181870160051c8301938710620002ec575b0160051c01908a905b828110620002df57508c915062000154565b60008155018a90620002cd565b92508192620002c4565b60228b634e487b7160e01b6000525260246000fd5b90607f169062000140565b60418a634e487b7160e01b6000525260246000fd5b6002600052878c8b600020920160051c8201915b8281106200034f57505062000112565b600081550188906200033f565b634e487b7160e01b600052602260045260246000fd5b90607f169062000100565b634e487b7160e01b600052604160045260246000fd5b8181018301518682018401528892016200008b565b600080fd5b6040519190601f01601f191682016001600160401b038111838210176200037d57604052565b51906001600160a01b0382168203620003a857565b6001600160a01b031660008181527f3617319a054d772f909f7c479a2cebe5066e836a939412e32403c99029b92eff602052604081205490919060ff16620004655781805260036020526040822081835260205260408220600160ff19825416179055339160008051602062002a818339815191528180a4600190565b5090565b6001600160a01b031660008181527f71cb879fb9263b7c8d892d1b703d73b0b8dff397bfac17fd90416fd4de3522b160205260408120549091907f46609dc3da421dc12c45501c330683ebeabac9565aeed8893f72929e506c49fd9060ff16620005075780835260036020526040832082845260205260408320600160ff1982541617905560008051602062002a81833981519152339380a4600190565b50509056fe6080604052600436101561001257600080fd5b60003560e01c8062fdd58e146101b657806301ffc9a7146101b15780630c876888146101ac5780630e89341c146101a757806318160ddd146101a2578063248a9ca31461019d5780632eb2c2d6146101985780632f2ff15d1461019357806336568abe1461018e57806346f7a53d146101895780634e1273f4146101845780634f558e791461017f5780635c975abb1461017a5780636b20c4541461017557806391d148541461017057806397ce59811461016b578063a0712d6814610166578063a217fddf14610161578063a22cb4651461015c578063a98a3c1914610157578063bd85b03914610152578063d547741f1461014d578063dc36d95014610148578063e985e9c514610143578063f242432a1461013e5763f5298aca1461013957600080fd5b611102565b610ffc565b610fab565b610f70565b610f31565b610f05565b610ee4565b610e28565b610e0c565b610de9565b610d9c565b610d4a565b610c5e565b610c3b565b610c0d565b610b53565b610a83565b6108ab565b61086c565b610743565b6105ce565b6105b0565b61043e565b6102e7565b61025f565b610200565b600435906001600160a01b03821682036101d157565b600080fd5b602435906001600160a01b03821682036101d157565b35906001600160a01b03821682036101d157565b346101d15760403660031901126101d157602061024461021e6101bb565b6024356000526000835260406000209060018060a01b0316600052602052604060002090565b54604051908152f35b6001600160e01b03198116036101d157565b346101d15760203660031901126101d157602060043561027e8161024d565b63ffffffff60e01b16637965db0b60e01b81149081156102a4575b506040519015158152f35b636cdb3d1360e11b8114915081156102d6575b81156102c5575b5038610299565b6301ffc9a760e01b149050386102be565b6303a24d0760e21b811491506102b7565b346101d15760c03660031901126101d15760443560243560043560643560a4356084356103126111c4565b83600e5584600f55856010558260115580601255816013556004549260ff8416156103d0577f2d9460db4579a983cd9abc1b28e040e0038438ac9a0a9a0d92bcc595b6318928966103bd9460ff19166004557f5db9ee0a495bf2e6ff9c91a7834c1ba4fdd244a5e8aa4e537bd38aeae4b073aa6020604051338152a1604051968796879260a094919796959260c0850198855260208501526040840152606083015260808201520152565b0390a160405160018152602090f35b0390f35b604051638dfc202b60e01b8152600490fd5b60005b8381106103f55750506000910152565b81810151838201526020016103e5565b9060209161041e815180928185528580860191016103e2565b601f01601f1916010190565b90602061043b928181520190610405565b90565b346101d15760203660031901126101d1576000600435807a184f03e93ff9f4daa797ed6e38ed64bf6a1f01000000000000000080821015610597575b506d04ee2d6d415b85acef810000000080831015610588575b50662386f26fc1000080831015610579575b506305f5e1008083101561056a575b506127108083101561055b575b50606482101561054b575b600a80921015610541575b6001908160216104e8828701611fd9565b95860101905b61050b575b6103cc6104ff86611ed5565b6040519182918261042a565b600019019083906f181899199a1a9b1b9c1cb0b131b232b360811b8282061a83530491821561053c579190826104ee565b6104f3565b91600101916104d7565b91906064600291049101916104cc565b600491939204910191386104c1565b600891939204910191386104b4565b601091939204910191386104a5565b60209193920491019138610493565b60409350810491503861047a565b60009103126101d157565b346101d15760003660031901126101d1576020600654604051908152f35b346101d15760203660031901126101d15760043560005260036020526020600160406000200154604051908152f35b634e487b7160e01b600052604160045260246000fd5b67ffffffffffffffff811161062757604052565b6105fd565b6020810190811067ffffffffffffffff82111761062757604052565b90601f8019910116810190811067ffffffffffffffff82111761062757604052565b67ffffffffffffffff81116106275760051b60200190565b81601f820112156101d1578035916106998361066a565b926106a76040519485610648565b808452602092838086019260051b8201019283116101d1578301905b8282106106d1575050505090565b813581529083019083016106c3565b67ffffffffffffffff811161062757601f01601f191660200190565b81601f820112156101d157803590610713826106e0565b926107216040519485610648565b828452602083830101116101d157816000926020809301838601378301015290565b346101d15760a03660031901126101d15761075c6101bb565b6107646101d6565b906044359167ffffffffffffffff908184116101d15761078960049436908601610682565b906064358381116101d1576107a19036908701610682565b926084359081116101d1576107b990369087016106fc565b936001600160a01b03808216903382141580610848575b61081b5783161561080357156107ec576107ea9550611589565b005b604051626a0d4560e21b8152600081880152602490fd5b604051632bfa23e760e11b8152600081890152602490fd5b6040805163711bec9160e11b815233818b019081526001600160a01b038616602082015290918291010390fd5b50600082815260016020908152604080832033845290915290205460ff16156107d0565b346101d15760403660031901126101d1576107ea60043561088b6101d6565b908060005260036020526108a6600160406000200154611240565b611261565b346101d15760403660031901126101d1576108c46101d6565b336001600160a01b038216036108e0576107ea906004356112fb565b60405163334bd91960e11b8152600490fd5b90600182811c92168015610922575b602083101461090c57565b634e487b7160e01b600052602260045260246000fd5b91607f1691610901565b6040519060008260075491610940836108f2565b808352926001908181169081156109c85750600114610969575b5061096792500383610648565b565b6007600090815291507fa66cc928b5edb82af9bd49922954155ab7b0942694bea4ce44661d9a8736c6885b8483106109ad575061096793505081016020013861095a565b81935090816020925483858a01015201910190918592610994565b90506020925061096794915060ff191682840152151560051b8201013861095a565b60405190600082600854916109fe836108f2565b808352926001908181169081156109c85750600114610a24575061096792500383610648565b6008600090815291507ff3f7a9fe364faab93b216da50a3214154f22a0a2b415b23a84c8169e8b636ee35b848310610a68575061096793505081016020013861095a565b81935090816020925483858a01015201910190918592610a4f565b346101d15760003660031901126101d157610ae2610a9f61092c565b610aa76109ea565b60018060a01b039081600954169180600a541681600b541690610af083600c541693600d54169460405198899860e08a5260e08a0190610405565b9088820360208a0152610405565b9460408701526060860152608085015260a084015260c08301520390f35b90815180825260208080930193019160005b828110610b2e575050505090565b835185529381019392810192600101610b20565b90602061043b928181520190610b0e565b346101d15760403660031901126101d15760043567ffffffffffffffff8082116101d157366023830112156101d1578160040135610b908161066a565b92610b9e6040519485610648565b81845260209160248386019160051b830101913683116101d157602401905b828210610bf657856024358681116101d1576103cc91610be4610bea923690600401610682565b906113e1565b60405191829182610b42565b838091610c02846101ec565b815201910190610bbd565b346101d15760203660031901126101d157600435600052600560205260206040600020541515604051908152f35b346101d15760003660031901126101d157602060ff600454166040519015158152f35b346101d15760603660031901126101d157610c776101bb565b67ffffffffffffffff6024358181116101d157610c98903690600401610682565b906044359081116101d157610cb1903690600401610682565b906001600160a01b0383163381141580610d26575b610cff5715610ce7576107ea926000604051610ce18161062c565b526114a6565b604051626a0d4560e21b815260006004820152602490fd5b60405163711bec9160e11b81523360048201526001600160a01b0385166024820152604490fd5b50600081815260016020908152604080832033845290915290205460ff1615610cc6565b346101d15760403660031901126101d157602060ff610d90610d6a6101d6565b6004356000526003845260406000209060018060a01b0316600052602052604060002090565b54166040519015158152f35b346101d15760003660031901126101d157600e54600f54601054601154601254601354604080519687526020870195909552938501929092526060840152608083015260a082015260c090f35b60203660031901126101d1576020610e02600435611a13565b6040519015158152f35b346101d15760003660031901126101d157602060405160008152f35b346101d15760403660031901126101d157610e416101bb565b60243590811515908183036101d1576001600160a01b038116928315610ecc57610e8d610e9e9233600052600160205260406000209060018060a01b0316600052602052604060002090565b9060ff801983541691151516179055565b6040519081527f17307eab39ab6107e8899845ad3d59bd9653f200f220920489ca2b5937696c3160203392a3005b60405162ced3e160e81b815260006004820152602490fd5b60403660031901126101d1576020610e02610efd6101d6565b600435611d5e565b346101d15760203660031901126101d15760043560005260056020526020604060002054604051908152f35b346101d15760403660031901126101d1576107ea600435610f506101d6565b90806000526003602052610f6b600160406000200154611240565b6112fb565b346101d15760003660031901126101d15760206040517f46609dc3da421dc12c45501c330683ebeabac9565aeed8893f72929e506c49fd8152f35b346101d15760403660031901126101d157602060ff610d90610fcb6101bb565b610fd36101d6565b6001600160a01b0391821660009081526001865260408082209290931681526020919091522090565b346101d15760a03660031901126101d1576110156101bb565b61101d6101d6565b60843567ffffffffffffffff81116101d15761103d9036906004016106fc565b906001600160a01b038381169033821415806110de575b6110b75782161561109e5715610ce7576107ea926110966064356044359160405192600184526020840152604083019160018352606084015260808301604052565b929091611589565b604051632bfa23e760e11b815260006004820152602490fd5b60405163711bec9160e11b81523360048201526001600160a01b0386166024820152604490fd5b50600082815260016020908152604080832033845290915290205460ff1615611054565b346101d15760603660031901126101d15761111b6101bb565b6001600160a01b03811633811415806111a0575b6111795715610ce7576107ea9061116a6044356024359160405192600184526020840152604083019160018352606084015260808301604052565b916000604051610ce18161062c565b60405163711bec9160e11b81523360048201526001600160a01b0383166024820152604490fd5b50600081815260016020908152604080832033845290915290205460ff161561112f565b3360009081527f71cb879fb9263b7c8d892d1b703d73b0b8dff397bfac17fd90416fd4de3522b1602052604090207f46609dc3da421dc12c45501c330683ebeabac9565aeed8893f72929e506c49fd9060ff905b5416156112225750565b6044906040519063e2517d3f60e01b82523360048301526024820152fd5b6000818152600360209081526040808320338452909152902060ff90611218565b600090808252600360205260ff61128d84604085209060018060a01b0316600052602052604060002090565b54166112f5578082526003602090815260408084206001600160a01b038616600090815292529020805460ff1916600117905533926001600160a01b0316917f2f8788117e7eff1d82e926ec794901d17c78024a50270940304540a733656f0d9080a4600190565b50905090565b600090808252600360205260ff61132784604085209060018060a01b0316600052602052604060002090565b5416156112f5578082526003602090815260408084206001600160a01b038616600090815292529020805460ff1916905533926001600160a01b0316917ff6391f5c32d9c69d2a47ea670b442974b53935d1edc7fd64eb21e047a839171b9080a4600190565b634e487b7160e01b600052601160045260246000fd5b60001981146113b25760010190565b61138d565b80518210156113cb5760209160051b010190565b634e487b7160e01b600052603260045260246000fd5b919091805183518082036114845750508051906113fd8261066a565b9161140b6040519384610648565b80835261141a601f199161066a565b0190602091368385013760005b815181101561147c57600581901b8281018401519087018401516000908152602081815260408083206001600160a01b0390941683529290522054611477919061147182876113b7565b526113a3565b611427565b509193505050565b604051635b05999160e01b815260048101919091526024810191909152604490fd5b9291926114b4848383612018565b6001600160a01b031615611523575b6000805b82518210156115115761150b906114de83876113b7565b51906114fe6114ed85876113b7565b516000526005602052604060002090565b82815403905501916113a3565b906114c7565b91505061096791925060065403600655565b6000805b825182101561156e576115626115689161154184886113b7565b51906115506114ed86886113b7565b61155b83825461200b565b905561200b565b916113a3565b90611527565b611584915061157f9060065461200b565b600655565b6114c3565b9193929061159982868386612323565b6001600160a01b0383811615611651575b811615806115f7575b156115c0575b5050505050565b84516001036115e6576020806115dc960151920151923361185b565b38808080806115b9565b6115f2949192336119a7565b6115dc565b94939092600093845b8651861015611639576116339061161787876113b7565b51906116266114ed898b6113b7565b82815403905501956113a3565b94611600565b61164c9193969792955060065403600655565b6115b3565b95919260009491855b875187101561168f576116836116899161167489896113b7565b51906115506114ed8b8d6113b7565b966113a3565b9561165a565b6116a79193965061157f90989295949860065461200b565b6115aa565b908160209103126101d1575161043b8161024d565b909260a09261043b9594600180861b0316835260006020840152604083015260608201528160808201520190610405565b919261043b95949160a094600180871b038092168552166020840152604083015260608201528160808201520190610405565b6040513d6000823e3d90fd5b3d1561175c573d90611742826106e0565b916117506040519384610648565b82523d6000602084013e565b606090565b9293919093843b611773575050505050565b602091611796604051948593849363f23a6e6160e01b98898652600486016116c1565b038160006001600160a01b0388165af16000918161182b575b506117ee57826117bd611731565b80519190826117e757604051632bfa23e760e11b81526001600160a01b0383166004820152602490fd5b9050602001fd5b6001600160e01b03191603611808575038808080806115b9565b604051632bfa23e760e11b81526001600160a01b03919091166004820152602490fd5b61184d91925060203d8111611854575b6118458183610648565b8101906116ac565b90386117af565b503d61183b565b939290949194853b611870575b505050505050565b611893602093604051958694859463f23a6e6160e01b998a8752600487016116f2565b038160006001600160a01b0388165af1600091816118d5575b506118ba57826117bd611731565b6001600160e01b031916036118085750388080808080611868565b6118ee91925060203d8111611854576118458183610648565b90386118ac565b9261192461043b95936119329360018060a01b031686526000602087015260a0604087015260a0860190610b0e565b908482036060860152610b0e565b916080818403910152610405565b939061043b9593611924916119329460018060a01b03809216885216602087015260a0604087015260a0860190610b0e565b9293919093843b611984575050505050565b602091611796604051948593849363bc197c8160e01b98898652600486016118f5565b939290949194853b6119bb57505050505050565b611893602093604051958694859463bc197c8160e01b998a875260048701611940565b818102929181159184041417156113b257565b6001600160a01b03909116815260406020820181905261043b92910190610405565b611a2a611a1e611ccc565b6305f5e10034046119de565b611a3b82611a36611c57565b6119de565b03611a5e57604051635c0b206f60e01b8152336004820152346024820152604490fd5b60405180611a7460208201602090600081520190565b0391611a88601f1993848101845283610648565b604051600080356001600160e01b03191660208301523360601b6bffffffffffffffffffffffff1916602483015293611acd9082603881015b03908101835282610648565b600b54611af090611ae4906001600160a01b031681565b6001600160a01b031690565b600c546001600160a01b0316813b15611b8d57918591611b2895949360405180978194829363938c054f60e01b8452600484016119f1565b039134905af1928315611b8857611b4593611b6f575b5033611b91565b337f0f6798a560793a54c3bcfe86a93cde1e73087d944c0ea20544137d41213968858280a3600190565b80611b7c611b8292610613565b806105a5565b38611b3e565b611725565b8580fd5b9091906001600160a01b0381161561109e5760405192600180855260208501946000865260408101918083526060820193845260808201604052611bd68383876121e8565b60008082805b611c17575b505061157f611bf29160065461200b565b815103611c09575050610967935190519133611761565b915091610967945033611972565b90918451831015611c4f57611c42611c4891611c3385896113b7565b51906115506114ed878a6113b7565b926113a3565b9080611bdc565b915080611be1565b600e5442101580611ca9575b15611c6e5760105490565b60115442101580611c9d575b15611c855760135490565b60405163781d698f60e11b8152426004820152602490fd5b50601254421115611c7a565b50600f54421115611c63565b519069ffffffffffffffffffff821682036101d157565b600d54604051633fabe5a360e21b81529060a090829060049082906001600160a01b03165afa8015611b8857600090611d0b575b6305f5e10091500590565b60a0823d8211611d56575b81611d2360a09383610648565b81010312611d53575080611d3b6305f5e10092611cb5565b50611d4d608060208301519201611cb5565b50611d00565b80fd5b3d9150611d16565b611d69611a1e611ccc565b611d7582611a36611c57565b1180611e2e575b15611d9f57604051635c0b206f60e01b8152336004820152346024820152604490fd5b6040519081611dcf8460208301603491600082526bffffffffffffffffffffffff199060601b1660208201520190565b03611de2601f1991828101855284610648565b604051600080356001600160e01b0319166020830152606095861b6bffffffffffffffffffffffff1990811660248401523390961b909516603882015290611acd9082604c8101611ac1565b50611e3f611e3b83611e44565b1590565b611d7c565b600a54604051627eeac760e11b81526001600160a01b039283166004820152600260248201529160209183916044918391165afa908115611b8857600091611e8d575b50151590565b906020823d8211611eb6575b81611ea660209383610648565b81010312611d5357505138611e87565b3d9150611e99565b90611ed1602092828151948592016103e2565b0190565b90604051918260207468747470733a2f2f697066732e696f2f697066732f60581b81830152600060075491611f09836108f2565b906001938481169081600014611fb35750600114611f58575b5050602f60f81b81526109679360059392611f3e920190611ebe565b64173539b7b760d91b815203601a19810185520183610648565b90915060076000527fa66cc928b5edb82af9bd49922954155ab7b0942694bea4ce44661d9a8736c6886000905b838210611f9c575050508201603501836005611f22565b805489830160350152889550908201908401611f85565b60ff19166035808801919091528315159093028601909201925085915060059050611f22565b90611fe3826106e0565b611ff06040519182610648565b8281528092612001601f19916106e0565b0190602036910137565b919082018092116113b257565b92919060049060ff8254166121d857805183518082036121b357505060005b815181101561211257600581901b828101602090810151918601015187906001600160a01b038216612075575b505050612070906113a3565b612037565b6120a48261208d856000526000602052604060002090565b9060018060a01b0316600052602052604060002090565b548181106120d5579161208d6120cc9261207096959403936000526000602052604060002090565b55908638612064565b604080516303dee4c560e01b81526001600160a01b0390941684890190815260208101929092528101919091526060810183905281906080010390fd5b506000939492915060018151148414612174576020908101519181015160408051938452918301526001600160a01b039092169133917fc3d58168c5ae7397731d063d5bbf3d657854427343f4c083240f7aacaa2d0f6291819081015b0390a4565b6040516001600160a01b039093169233927f4a39dc06d4c0dbc64b70af90fd698a233a518aa5d07e595d983b8c0526c8f7fb92829161216f9183612519565b60408051635b05999160e01b8152808601938452602084019290925290918291010390fd5b5060405163d93c066560e01b8152fd5b91909160ff6004541661231157825182519081810361148457505060005b835181101561227257600581901b8481016020908101519185010151612240929184906001600160a01b038216612245575b5050506113a3565b612206565b6122689161208d612260926000526000602052604060002090565b91825461200b565b9055388381612238565b509160018151146000146122d2576020908101519181015160408051938452918301526001600160a01b039092169160009133917fc3d58168c5ae7397731d063d5bbf3d657854427343f4c083240f7aacaa2d0f6291908190810161216f565b7f4a39dc06d4c0dbc64b70af90fd698a233a518aa5d07e595d983b8c0526c8f7fb61216f6000939460405191829160018060a01b031696339583612519565b60405163d93c066560e01b8152600490fd5b939260049260ff84541661250857805182518082036124e357505060005b815181101561243a57600581901b82810160209081015191850101516001600160a01b03929186908a85166123ad575b612383948216612388575050506113a3565b612341565b6123a39161208d612260926000526000602052604060002090565b9055388581612238565b91929390506123ca8a61208d846000526000602052604060002090565b548381106123fd5791879184612383969594036123f58d61208d856000526000602052604060002090565b559450612371565b604080516303dee4c560e01b81526001600160a01b038d16818c019081526020810193909352908201859052606082018490529081906080010390fd5b509091925093929360018151146000146124a0576020908101519181015160408051938452918301526001600160a01b03928316939092169133917fc3d58168c5ae7397731d063d5bbf3d657854427343f4c083240f7aacaa2d0f62918190810161216f565b6040516001600160a01b03938416949093169233927f4a39dc06d4c0dbc64b70af90fd698a233a518aa5d07e595d983b8c0526c8f7fb92829161216f9183612519565b60408051635b05999160e01b8152808801938452602084019290925290918291010390fd5b60405163d93c066560e01b81528490fd5b909161253061043b93604084526040840190610b0e565b916020818403910152610b0e56fea2646970667358221220997c0f36e99e6b76f184c8de6537a79db25f002c9772bf8e51f966756291262f64736f6c634300081400332f8788117e7eff1d82e926ec794901d17c78024a50270940304540a733656f0da26469706673582212206722b0ac3d4dd197b9ece10b9c474c94af8255e380ccf5cb4dda30b525c9e6db64736f6c634300081400332f8788117e7eff1d82e926ec794901d17c78024a50270940304540a733656f0d",
    "linkReferences": {}
  },
  "methodIdentifiers": {
    "DEFAULT_ADMIN_ROLE()": "a217fddf",
    "MANAGER_ROLE()": "ec87621c",
    "createTribe(string,bytes)": "b8c729c4",
    "getRoleAdmin(bytes32)": "248a9ca3",
    "grantRole(bytes32,address)": "2f2ff15d",
    "hasRole(bytes32,address)": "91d14854",
    "heartbeat()": "3defb962",
    "renounceRole(bytes32,address)": "36568abe",
    "revokeRole(bytes32,address)": "d547741f",
    "setCartesiDapp(address)": "d96e7808",
    "supportsInterface(bytes4)": "01ffc9a7",
    "tribesFactoryData()": "15a527f6"
  },
  "id": 68
}